:1000000000000420FD650000356600005932000044
:1000100039660000653200006B320000000000000D
:100020000000000000000000000000003F6600002B
:1000300041660000000000004366000045660000C5
:100040006D8B0000476600004766000047660000B1
:1000500047660000476600004766000047660000EC
:1000600047660000476600004766000047660000DC
:1000700047660000399000004766000047660000B0
:1000800047660000476600004766000047660000BC
:1000900047660000476600004766000047660000AC
:1000A000476600004766000047660000476600009C
:1000B00047660000476600000000000000000000E6
:1000C000476600004766000047660000476600007C
:1000D000476600004766000047660000476600006C
:1000E0004766000047660000476600000000000009
:1000F00000000000476600000000000047660000A6
:1001000010B5054C237833B9044B13B10448AFF351
:1001100000800123237010BD18040020000000009F
:1001200030F2000008B5034B1BB103490348AFF39D
:10013000008008BD000000001C04002030F2000018
:10014000154B002B08BF134B9D46A3F5803A0021A9
:100150008B460F461348144A121A0BF09DFC0F4BA6
:10016000002B00D098470E4B002B00D09847002062
:10017000002104000D000D48002802D00C4803F0B7
:1001800075FD0BF07BFB2000290003F069FF03F0F5
:100190006AFD00BF0000080000000420000000000D
:1001A0001940000018040020C83500206D3C0000F4
:1001B00000000000704710B52821044603F026FF18
:1001C000204610BD38B50546064B45F8043B0446AD
:1001D00002F07EFA284609F035F8204602F078FA57
:1001E000204638BD18CC000038B50546054B45F80B
:1001F000043B044605F08EFD2846FFF7E3FF20464A
:1002000038BD00BF54E0000010B50446FFF7DAFF28
:100210002046502103F0FAFE204610BD10B50446DA
:10022000FFF7E2FF20464FF4C07103F0EFFE2046D7
:1002300010BD000030B5134D2B78BFF35B8F13F06A
:10024000010487B01AD1284603F01CFDB0B10E4B53
:100250000E48CDE9034311221323CDE901321723C0
:10026000152214210093162305F0CCFC284603F038
:1002700027FD074A0749054803F0F3FC034807B088
:1002800030BD00BF380400200048E80168040020A9
:1002900000020020E90100001FB5114CFFF7CAFF62
:1002A0002378BFF35B8FDB0717D40390204603F05E
:1002B000E9FC039988B14FF440220023CDE90023E3
:1002C00008480022002306F05DF9204603F0F8FC00
:1002D000054A0649034803F0C4FC024804B010BDB7
:1002E000340400204004002000020020B50100007A
:1002F00008B50346024653F8040B20B9106810B93C
:100300001360184608BD9842FCD0024902488B226F
:1003100003F0F2F888CA0000BBCA0000036870B599
:10032000CD1A002D0DDD93F900601C78002E0BDB3B
:100330005C1C04601B7813600368C91A13688B4245
:1003400032D96FF05F0070BD04F07F04013C032CD4
:1003500027D8DFE804F00209121E012DF1D05C78E5
:10036000146002330360E7E7022DEADDB3F80140D1
:1003700064BAA4B214600333F4E7032DE1DD9C7882
:100380005D78240244EA0544DD782C43146004338C
:10039000E8E7042DD5DDD3F8014024BA1460053315
:1003A000E0E76FF06300CEE70020CCE770B40468AC
:1003B0000E1B002E07DD26789E4208D10134046012
:1003C00070BCFFF7ABBF6FF05F0070BC70476FF0A1
:1003D0006100FAE737B50223154601AA0446FFF784
:1003E000E5FF40B9019A2168284600F031FA2368F8
:1003F000019A1344236003B030BDF0B505460020D8
:1004000004390446AC4200D1F0BD51F8047F3B1AD8
:100410000B6052F82460B3422CBF4FF0000C4FF039
:10042000010C9B1B87422CBF60460CF101000B6046
:100430000134E7E7F0B50546074600240F2F4BD8F7
:100440002E096FF00F0000FB0655072D3AD90E4616
:10045000083D56F8040B1168E3FB601442F8041BD6
:1004600056F8040B1168E3FB601442F8041B56F8BD
:10047000040B1168E3FB601442F8041B56F8040BEC
:100480001168E3FB601442F8041B56F8040B116872
:10049000E3FB601442F8041B56F8040B1168E3FBFD
:1004A000601442F8041B56F8040B1168E3FB601457
:1004B00042F8041B56F8040B1168E3FB601442F881
:1004C000041B3146002D7BD113681C1942F8044BE4
:1004D0004FF00104F8D2F0BD0E46103F56F8040B61
:1004E0001168E3FB601442F8041B56F8040B116812
:1004F000E3FB601442F8041B56F8040B1168E3FB9D
:10050000601442F8041B56F8040B1168E3FB6014F6
:1005100042F8041B56F8040B1168E3FB601442F820
:10052000041B56F8040B1168E3FB601442F8041B2B
:1005300056F8040B1168E3FB601442F8041B56F8EC
:10054000040B1168E3FB601442F8041B56F8040B1B
:100550001168E3FB601442F8041B56F8040B1168A1
:10056000E3FB601442F8041B56F8040B1168E3FB2C
:10057000601442F8041B56F8040B1168E3FB601486
:1005800042F8041B56F8040B1168E3FB601442F8B0
:10059000041B56F8040B1168E3FB601442F8041BBB
:1005A00056F8040B1168E3FB601442F8041B56F87C
:1005B000040B1168E3FB601442F8041B31463DE76D
:1005C0000E46013D56F8040B1168E3FB601442F837
:1005D000041B314676E701F18041013900EB8101CE
:1005E0008142034600D270471B680A681BBA12BAE0
:1005F00040F8042B41F80439F2E72DE9F74F0C9C41
:10060000009017466268A06801938A469200002114
:100610000BF042FAD7F80490DAF80430A6684B459C
:1006200028BF4B4609F1010407EE903AA400B046FA
:100630000025009BA945186820D1043C06EB04085E
:10064000224641460BF01AFA56F81430BA680133C4
:1006500046F8143041462846FFF7CFFE56F81430CE
:10066000181A009B46F81400C0B21C68C0F10106BD
:1006700000239D4223D103B0BDE8F08FDAF80810C3
:1006800050F825B00B68D8F80000019A03FB0B0363
:10069000534307EE103A17EE900A42465B46FFF7C7
:1006A000C9FE424617EE103AB9684846FFF7C2FE47
:1006B00048F804BB002348F804300135B9E758F87E
:1006C000231054F82320414302FB061244F8232050
:1006D0000133CEE700230122C0E900238360704785
:1006E00010B5044668B1806830B16168890000F0D7
:1006F0007FFFA0680BF056F900230122C4E9002314
:10070000A36010BD42F2107399422DE9F0410446F6
:100710000D4603D96FF00F00BDE8F08146688E42A8
:1007200019D2042128460AF091FE07460028F1D08C
:10073000D4F80880B8F1000F0BD0B600324641461D
:100740000BF09CF94046314600F052FFA0680BF0D8
:1007500029F9C4E901570020DEE7884270B5054653
:100760000E4603D04C683CB9FFF7BAFF002011E0F9
:10077000B36853F8243013B9013C002CF8D16A68EF
:1007800033682B600134A24205D221462846FFF788
:10079000B9FF40B170BDA868121B9200002100EBA8
:1007A00084000BF079F9B168A868A2000BF066F933
:1007B000DCE770B50E4601210446FFF7A3FF0546AE
:1007C00088B9626801469200A0680BF065F9A368D9
:1007D00086EAE672002EA2EBE6721A60B4BF4FF012
:1007E000FF3301232360284670BD4368B1EB431FEC
:1007F0003FBF4A09836853F8220001F01F013ABF46
:1008000020FA01F101F00100002070470246406823
:1008100088B19268431E7BB952F8231000204FF034
:100820000042114204D1013020284FEA5202F8D18F
:100830000133C0EB4310704752F823100029EBD16D
:10084000013BE8E708B5FFF7E1FF0730C00808BD46
:100850002DE9F04112F0030518BF0125436805EBAF
:100860009205AB4204468846174608D1002120462F
:10087000FFF79FFF064688B13046BDE8F081FFF7DD
:100880002FFF00230122C4E90023A360294620464C
:10089000FFF738FF06460028E8D0EDE7B8F1000F73
:1008A000EAD0A368C7EB85003A46414618440BF0EE
:1008B000E5F8002DE0D0A0682946FFF78CFEDBE7C5
:1008C000F8B5044608466368B2EB830F4FEA830528
:1008D0001CD9521B8E1800210BF0DEF830462A4638
:1008E000811800239A4213D10020F8BDA76823F095
:1008F000030C03F00301CE0057F80C10F14011F087
:10090000FF0F11D10133AB42F0D1E9E71346FAE70B
:10091000A76823F0030603F00300C500B859E840B8
:1009200001F8010D0133DDE76FF00700DDE7F8B5F1
:1009300004460E464D0901F01F07FFF767FF636885
:100940003044B0EB431F04D81F2E0ED85FBB0020ED
:100950000AE010F01F0118BF012101EB50112046E1
:10096000FFF7D0FE0028EFD0F8BD63686FF00300FA
:100970009A0068431946A942A2F104020AD8AB4280
:1009800028BF2B469B000022043B191DDED0A16826
:10099000CA50F9E7A66806EB020C01395CF800C002
:1009A00046F802C0E7E766680022C7F1200CAE42B5
:1009B000CDD9A06850F8251001FA07F3134340F889
:1009C000253021FA0CF20135F1E74368F0B44E0905
:1009D000B34201F01F0401D304D15CB3F0BC002189
:1009E000FFF7E7BE1F2927D804BB0020F0BC7047E3
:1009F0008268575942F82170043501319A1B8A42A6
:100A0000F6D800219342EFD9856845F822100132CB
:100A1000F8E7866856F8235025FA04F20A4346F8A8
:100A2000232005FA07F1013BF3D2DEE70021C4F1F0
:100A30002007F8E71F29D8D9B5000021DEE730B537
:100A400043682BB94A6862B9181E18BF012028E014
:100A5000826802EB830252F8042C002AF2D1013B97
:100A6000EFE78C6804EB820555F8045C85B9013A20
:100A7000E9E7826852F8231054F82320914205D800
:100A800003F1FF330AD24FF0FF300AE0012008E003
:100A90000BB19342FAD89342F5D3013B5A1CE8D1EB
:100AA000002030BD30B54368024623B9486858B9C4
:100AB000002B38D131E0906800EB830050F8040C33
:100AC0000028F3D1013BF0E78C6804EB800555F872
:100AD000045C25BB0138EAE78342096801D2484239
:100AE00022E01068002803DD002913DA01201BE052
:100AF00000290FDD70B14FF0FF3015E0916851F81B
:100B0000235054F823108D420ED803F1FF3302D244
:100B1000404209E0013B591CF0D1002004E0002BC9
:100B2000DAD08342D8D9106830BD1FB581EAE173AD
:100B3000A3EBE17300290093B4BF4FF0FF3301230F
:100B4000019301A901230293CDF80CD0FFF7AAFF6E
:100B500005B05DF804FB90422DE9F04107460D46D3
:100B6000164602D0884229D1354601236E683B6083
:100B700066BB31463846FFF7C5FD044618BBBB6867
:100B8000A968054686422AD103EB8603DDB17A685F
:100B9000B24206F1010808D841463846FFF7B2FDD7
:100BA00000282FD1BB6803EB86031A68551943F858
:100BB000045B46462CBF01250025E7E7FFF7CDFD86
:100BC00004460028D0D02046BDE8F081AB6803EB96
:100BD000860353F8043C002BCBD1013EC8E753F801
:100BE000202012EB050C51F820202CBF01250025F8
:100BF0001CEB020243F820202CBF012200221544E6
:100C00000130BFE70446DEE7F0B5174685B00023A4
:100C10000122B842CDE9012306460D46039306D1D1
:100C2000014601A8FFF799FD044628BB01AFAE427B
:100C30001BD1D7E90152012333601DBBB16828469F
:100C4000FFF7DBFB0446B8B171684FF0FF30A942F3
:100C500024D9B36853F82520E2B1B26852F82530A0
:100C6000013B42F82530002406E029463046FFF7D4
:100C700074FD04460028DCD001A8FFF731FD2046B2
:100C800005B0F0BD02EB850353F8043C002BD5D131
:100C9000013DD2E743F825000135D8E7DDD16FF0FB
:100CA0000904ECE7F8B50D6813686B4304460F467A
:100CB000164616D511463846FFF7C1FE002806DB5A
:100CC000324639462046FFF79FFF40B1F8BD3A460D
:100CD00031462046FFF798FF0028F7D16D42256086
:100CE000F4E7FFF738FFF0E7F8B50D6813686B43DA
:100CF000002B04460F46164616DD11463846FFF710
:100D00009EFE002806DB324639462046FFF77CFF70
:100D100040B1F8BD3A4631462046FFF775FF00283E
:100D2000F7D16D422560F4E7FFF715FFF0E72DE9F5
:100D3000F043002387B0154688424FF00102CDE909
:100D40000023CDE90232CDE9043380460E4605D1B9
:100D50006846FFF702FD0446E8B96E46A84506D18D
:100D6000414603A8FFF7F9FC0446A0B903ADD6F845
:100D70000490B9F1000F18D16F6807BB09EB0701A8
:100D80004046FFF7BFFC044628B901464046FFF73E
:100D900010FD044638B303A8FFF7A2FC6846FFF72E
:100DA0009FFC204607B0BDE8F083B36803EB8903DE
:100DB00053F8043C002BDFD109F1FF39D9E7AB68C8
:100DC00003EB870353F8043C002BD7D1013FD4E752
:100DD000AB68D8F8082053F82730B16802EB8702D7
:100DE0004846FFF727FB013FF2D232682B68534396
:100DF000C8F80030CFE71FB50123009201AACDE962
:100E00000133CDF80CD0FFF792FF05B05DF804FB7D
:100E10002DE9F04F2DED028B074699B08946184613
:100E2000002108EE903A9246FFF77FFE002800F07E
:100E30009A81032300240125139318EE901A15AB11
:100E40005046CDE90654CDE90845CDE90A44CDE93F
:100E50000C54CDE90E45CDE9104412951493FFF7DB
:100E6000EEFDA0422ADA4FB9B9F1000F1ED10024DD
:100E7000204619B0BDEC028BBDE8F08F2146384604
:100E8000FFF797FC04460028EED006A8FFF728FCE1
:100E900009A8FFF725FC0CA8FFF722FC0FA8FFF715
:100EA0001FFC0C2115A800F0A3FBE1E751464846C2
:100EB000FFF753FC04460028E7D1D8E7514606A8BF
:100EC000FFF74BFC04460028DFD10DF1240818EE93
:100ED000901A4046FFF741FC04460028D5D1DAF8C5
:100EE0000410099502310CA80695FFF70BFC044687
:100EF0000028CAD101460CA8FFF75BFC0446002875
:100F0000C3D102210FA8FFF7FDFB04460028BCD186
:100F10004046FFF77BFC00F01F001F2870D0C0F197
:100F20001F03194606A808EE103AFFF700FD044615
:100F30000028AAD118EE101A4046FFF7F8FC044624
:100F40000028A2D1079E0A9D731B4FEA431B5946F6
:100F500040460093FFF7EBFC0446002895D1009B28
:100F60009B00414606A80093FFF79CFD0028009BCC
:100F700049DA59464046FFF728FD0446002884D147
:100F80006B1E00939B0006F1FF3B019306F1804628
:100F900005F18043023B013E9B00751B0593AD00AC
:100FA000009B9B453ED85FB10CA93846FFF7D5FBA7
:100FB00020BB18EE903ADAF800201B6853433B60E0
:100FC000B9F1000F3FF461AF18EE101A06A8FFF751
:100FD000FCFC98B9DAF80030069306A94846FFF7FA
:100FE000BCFB0146002840F0BC804846FFF79DFD51
:100FF00000287FF44AAF0123C9F80030044644E7D3
:1010000008EE104A9EE70E990093CA580132CA5062
:1010100006A942460846FFF767FE009B04460028E3
:101020009FD032E7089E019A56F82B104FEA8B03A7
:10103000029306EB8B0304930B9B9A58029B043B91
:1010400003930E9B914203EB050872D34FF0FF32DE
:101050005A51BBF1010F16BF049B002353F8083C03
:101060001593039BF3581693029BF3581793D8F8E4
:1010700000300133C8F800300E9A5359013B5351E8
:1010800000210FA8FFF795FB0028B7D1009B0B9A12
:10109000002B64D0059BD158119B196001995258BF
:1010A0005A600E9B0FA95A590846FFF7A4FE002864
:1010B000A4D112A90FA8FFF7F5FC0028DCDC0E9BD9
:1010C00009A95A590FA8FFF796FE002896D1EE00FD
:1010D00031460FA8FFF72BFC00288FD106A9084640
:1010E0000FAAFFF701FE014600283AD106A8FFF734
:1010F0001CFD002819DA09A90FA8FFF72EFB00280C
:101100007FF47CAF31460FA8FFF711FC00287FF475
:1011100075AF06A90FAA0846FFF7C4FD00287FF4A3
:101120006DAF0E9A5359013B53510BF1FF3B043DF8
:1011300036E7039BF0587AB100230BF00DFB0B460A
:101140000021024699424FF0FF3008BF904200D282
:101150000246C8F800207CE74FF0FF32F9E700991B
:101160009AE70C4691E66FF00B0481E670B50446F1
:101170000D46104600211646FFF7D7FC002824DB59
:101180002A46334621460020FFF742FE054638B185
:10119000284670BD324621462046FFF783FD90B9B0
:1011A00000212046FFF7C1FC0028F3DB3146204632
:1011B000FFF778FC0028EBDB324621462046FFF79C
:1011C00093FD0028F2D00546E2E76FF00905DFE75E
:1011D0002DE9F04FADF2646D0646884618460021B1
:1011E00005921D46FFF7A1FC002840F3FB81AB6888
:1011F0001C6814F00103079300F0F48105980021A6
:10120000FFF793FC0028C0F2ED81A71C7F0007F0D8
:1012100008072744032107FB04F3C3F10203013944
:1012200003FB07F7F7D101234FF4C06218A8CDE9FB
:101230000C31CDE90E13CDE91011CDE91231149125
:101240000AF02AFC0598FFF7E1FAB0F5287F80F054
:10125000F580EF2800F2F4804F2800F2F380172881
:10126000079B88BF03236968039301F1010949467D
:101270003046FFF747FA0446002840F0BD80494653
:101280001BA8FFF73FFA0446002840F0B5804FEA5C
:1012900049010FA8FFF736FA0446002840F0AC8059
:1012A000D8F80030069301330BD1414612A8FFF75E
:1012B00054FA0446002840F09F80012312930DF158
:1012C0004808DDF888361BB19B68002B40F0BC80D5
:1012D00001210CA8FFF76DFA0446002840F08C802D
:1012E00069680CA88901FFF722FB0446002840F03A
:1012F00083800CA92A460846FFF738FF04460028D9
:101300007AD1DDF888363BB10CAB03CBDDF888260B
:10131000106018685160906029464046FFF7C2FB94
:101320000028C0F29A802A4641461BA8FFF71EFFFC
:101330000446002860D10DF13C097B422A460CA9E5
:101340001DA8CDF800900493FFF757F90CA930467B
:10135000FFF703FA044600284ED10BAA06F108084D
:101360000127049B1792CDF800902A4615A9404604
:10137000CDE915770B97FFF740F9039BBB42049B20
:1013800070D1059A4FF0000A52680492D146D346B4
:101390005746BBF1000F40F0C080049A002A40F08D
:1013A000B780039A4FF0010B0BFA02FB0DF13C0AD8
:1013B000049A4A4540F0F68001220BA9CDE9152296
:1013C0000B921791CDF800A02A4615A94046FFF7C9
:1013D00014F9069B01330FD1059B5B6863B1059B34
:1013E0009B681B68DB0707D5069B3360324629469E
:1013F0003046FFF757FC0446039B039A5D1E01230A
:1014000003FA05F503FA02F60C27AE4200F2E38078
:101410001BA8FFF765F90FA8FFF762F912A8FFF7FD
:101420005FF9DDF888360BB19B6813B90CA8FFF79C
:1014300057F920460DF2646DBDE8F08F062312E7E0
:10144000052310E704230EE7DDF8882610685168AD
:101450000CAB03C3906818605EE741461BA8FFF71A
:101460007CF965E70893039B696803F1FF3A07FA83
:101470000AF30C27049307FA0AF718AB1F4401314B
:101480003846FFF73FF90028B5D11BA93846FFF7CA
:1014900064F90028AFD1089BA34607F10800CDF8F6
:1014A00000902A4639460BF1010B09930890FFF78B
:1014B000A4F8D345DDE90803F1D3049A039902F1B6
:1014C0000109012202FA01FBCB457FF65AAF696898
:1014D000049307F10C0A01315046FFF713F9002875
:1014E00089D139465046FFF738F9002883D10FAB30
:1014F000009307F11400049B2A461BA9FFF77DF80F
:1015000009F10109049B5746DEE74FF0020A40E764
:10151000049A013A04924FF0200B059A04999268BC
:1015200052F821200BF1FF3B22FA0BF212F00102DC
:1015300010D1BAF1000F3FF42CAFBAF1010F09D16D
:101540000FAA009231462A4640460893FFF755F805
:10155000089B1EE7039909F10109A1EB09018A40E3
:101560001743039A4A45D0D14FF0000A0FAA0092C0
:1015700031462A4640460AF1010A0893FFF73DF832
:10158000D145089BF2D80FAA18A80C2101FB07012E
:10159000009240462A460027FFF72FF8B946DDF8AB
:1015A0001CA0D5E7CDF800A02A46314640467F0072
:1015B0000793FFF722F81BEA070F079B07D0CDF828
:1015C00000A02A461BA94046FFF717F8079B049A7C
:1015D00001320492ECE618AB07FB0530FFF780F808
:1015E000013512E76FF0030423E700207047000085
:1015F0000A4619B1024B00211B681847704700BF0B
:1016000004020020F8B500F1080647680446304699
:101610000D46FFF717F9874216D16368B3F5007FCF
:1016200012D800213046FFF780FA00280CDD002197
:101630003046FFF7DAF838B145B9002104F114005B
:10164000FFF773FA00281EDC1B481EE004F12C068D
:1016500000213046FFF769FA0028F5DD0021304609
:10166000FFF7C3F80028EFD004F138060021304618
:10167000FFF75BFA0028E7DD00213046FFF7B5F8F9
:101680000028DAD1E0E70DB90020F8BD002104F10F
:101690004400FFF74AFA0028D6DD002104F150008B
:1016A000FFF743FA0028CFDD002104F15C00FFF7CB
:1016B0003CFA0028E8DCC7E780BFFFFF10B504460E
:1016C0008C30FFF70DF804F19800FFF709F804F1EA
:1016D0006800FFF705F804F12000FFF701F804F1B6
:1016E0003800FEF7FDFF04F12C00FEF7F9FF04F1CE
:1016F0001400FEF7F5FF04F10800FEF7F1FF04F116
:101700008000FEF7EDFF04F17400FEF7E9FF04F13D
:101710005C00FEF7E5FF04F15000FEF7E1FF04F185
:101720004400BDE81040FEF7DBBF2DE9F843054655
:10173000DDE90876914698460C4679B9B9F1000F73
:1017400015D1B8F1000F1AD10FBB46BB7CB305F120
:101750000800FFF777F86860002006E00830FEF721
:10176000FCFF0028EAD0A0F58140BDE8F883494697
:1017700005F12C00FEF7F1FF0028E2D0F3E7414627
:1017800005F13800FEF7E9FF0028DDD0EBE7394628
:1017900005F12000FEF7E1FF0028D6D0E3E731464F
:1017A00005F11400FEF7D9FF0028CFD0DBE7204673
:1017B000DBE770B504460E4615460021AC220AF060
:1017C0006BF9C4E9296570BD70B500210446FFF7C7
:1017D00019FF0546B8B904F108063046FFF716F8B8
:1017E0007F2810D9143429462046FEF7FEFF50B159
:1017F0002046FFF70BF8012805D931462046FFF7B0
:1018000051F9002800DB014D284670BD00BEFFFFE6
:10181000F0B50C4689B0002105461646FFF7F2FEEA
:1018200088BB05A8FEF756FF21466A6805A8FFF7A2
:101830000FF80446D8B905F10803194605A8039323
:10184000FFF730F90028039B1ADA05F1680205A9B1
:101850000092084605F114026F68FFF7B9FC0446D0
:1018600028B93A46314605A8FFF72AF8044605A8E4
:10187000FEF736FF0CB1A4F58544204609B0F0BD53
:101880006FF00304F3E7014CF7E700BF80BFFFFFF1
:1018900008B1FFF713BF70476C2200210AF0FCB8B3
:1018A0000023C0E90033C1B9194A1A4BDFF88CC0D4
:1018B000C0E90223184B194AC0E904C3184BC0E918
:1018C0000623184B036203F17453A3F52303A3F615
:1018D00092434362816600207047134B134ADFF83E
:1018E00060C0C0E9022303F1794303F5740303F5F3
:1018F000016303610E4BC0E905C303F1D14303F556
:10190000C01303F51E63C3610A4B03620A4BE0E791
:1019100067E6096A85AE67BB3AF54FA57F520E515F
:101920008C68059BABD9831F07D57C36D89E05C133
:10193000310BC0FFA78FF964A44FFABE72F36E3C5F
:1019400039590EF72DE9F04FD1B000F10803059396
:1019500008AB009300F128030693009A059B53F807
:10196000040B42F8040B06989842F8D10DF1400997
:1019700001F140004A464B780C781B0443EA0463AB
:10198000CC7823438C78043143EA0423884242F81C
:10199000043BF0D1009B00999B48D3F81CC0D3F8BE
:1019A0001080C9680190D3E9056BD3E900729B6888
:1019B000CA468646DEF80000DAF800404FEAF8250D
:1019C00085EAB815204485EA786505448BEA060067
:1019D00000EA080080EA0B00054447EA02044FEAE7
:1019E0007730AC4480EAB70007EA02051C4080EA81
:1019F000B7502C430444DEF80450DAF804000544E0
:101A00006144AB4488EA06050D40A44485EA060417
:101A10000BEB04054FEAF12B8BEAB11B8BEA716BE0
:101A2000AB444CEA07004FEA7C350CEA070485EA30
:101A3000BC051040204385EABC55DEF8084005444B
:101A4000DAF8080004445B44264481EA08041C4098
:101A50005D4484EA080B06EB0B044FEAF32686EAA2
:101A6000B31686EA736626444CEA05004FEA7534DD
:101A70000CEA050B84EAB504384040EA0B0084EA1E
:101A8000B554044434443244DEF80C00DAF80C60F7
:101A900081EA030B30440BEA020B4FEAF2268BEA91
:101AA000010B404486EAB216584486EA7266064440
:101AB00007EB06084FEA743045EA040705EA040B11
:101AC00080EAB40007EA0C0747EA0B0780EAB45043
:101AD00038443044DAF81070DEF8106083EA020B04
:101AE0003E4431440BEA080B4FEAF8268BEA030B1D
:101AF00086EAB816594486EA78660E4444EA000736
:101B00004FEA703104EA000B81EAB0012F4047EA46
:101B10000B0781EAB05139443144B444DAF8147007
:101B2000DEF8146082EA080B3E4433440BEA0C0BE7
:101B30004FEAFC268BEA020B86EABC165B4486EA77
:101B40007C661E4405EB060B4FEA713340EA010543
:101B500000EA0107254083EAB1033D4383EAB1531C
:101B60002B443344DEF81850DAF818603544154435
:101B700088EA0C0202EA0B0282EA0807EA194FEA35
:101B8000FB2585EABB1585EA7B65154466194FEA96
:101B9000733241EA0304044001EA030782EAB30214
:101BA0003C4382EAB35222442A44DEF81C40DAF86D
:101BB0001C506719B8448CEA0B07374087EA0C07BA
:101BC00047444FEAF62888EAB61888EA7668474418
:101BD00000EB070843EA02044FEA723080EAB200E1
:101BE0000C4003EA020580EAB2502C430444074843
:101BF0000EF1200E704527440AF1200A7FF4DAAE78
:101C000009F1C000079003E0E0CA000020CB00000B
:101C1000D9F83800D9F80450D9F800404FEAF04E0E
:101C20008EEA704E8EEA902ED9F824004FEAB54A1B
:101C300020448AEAF51A8AEAD50A86444FEAF8244B
:101C40000EEB0A0084EAB814049084EA78608BEA08
:101C5000060404EA080484EA0B0404440198006CB6
:101C60002044049CC9F840402044844461440291CB
:101C700047EA02004FEA773107EA020481EAB70136
:101C8000184081EAB75120430844D9F83C10D9F8EC
:101C9000084084444FEAF14080EA714080EA912094
:101CA000D9F8281029440144029888EA060E0EEA61
:101CB000000E01984FEAB445406C85EAF41585EAB8
:101CC000D4052944584408448EEA060E86440298F6
:101CD000C9F844104FEAF02585EAB01585EA706529
:101CE00005EB0E0003EB000B4FEA7C3547EA0C03D3
:101CF00007EA0C0E85EABC05134043EA0E0385EAA9
:101D0000BC551D44049BD9F80CE005444FEAF34050
:101D100080EA734080EA9320D9F82C3023440344AE
:101D2000029888EA000A01984FEABE44806C84EA6F
:101D3000FE1484EADE0423440AEA0B0A30444FEA24
:101D4000FB2418448AEA080A84EABB1484EA7B6408
:101D5000824404EB0A0002444CEA05044FEA75365B
:101D6000039286EAB5060CEA05023C4086EAB556BF
:101D70001443344404444FEAF14080EA714080EA5D
:101D80009121D9F83000D9F81020C9F8483086449C
:101D900071444FEAB24E8EEAF21E8EEAD20E8E44A3
:101DA0000299039881EA0B01014002984140019891
:101DB000C66C0398C9F84CE0464476443144039E0F
:101DC0004FEAF02080EAB61080EA7660461845EACD
:101DD000040005EA04014FEA743800EA0C0088EABE
:101DE000B40808434FEAF34188EAB45881EA7341E2
:101DF000404481EA9323D9F83410304407EB060AB3
:101E0000D9F814600A4413444FEAB64282EAF61243
:101E100082EAD6021A44039B0299C9F850208BEA41
:101E20000307019B1B6D13440B4407EA0A074FEAA3
:101E3000FA2187EA0B0781EABA111F4481EA7A6125
:101E4000CB1944EA00074FEA703104EA000881EA3E
:101E5000B0012F4047EA080781EAB05139441944DC
:101E60009C44D9F81880D9F838304FEAFE4787EA01
:101E70007E4787EA9E2E9F194FEAB84383EAF813FC
:101E800083EAD80377441F44039BC9F8547083EA5C
:101E90000A0E0EEA0C0E8EEA030E019B5B6D3B44AC
:101EA0005B449E444FEAFC2383EABC1383EA7C63D1
:101EB00003EB0E0605EB060B4FEA713340EA010512
:101EC00000EA010E254083EAB10345EA0E0583EAE4
:101ED000B1532B443344D9F83C50D9F81CE04FEAB5
:101EE000F24686EA724686EA922205EB0806164416
:101EF0004FEABE4282EAFE1282EADE021644019AEC
:101F0000C9F85860956D039A35448AEA0C0815445F
:101F100008EA0B084FEAFB2288EA0A0882EABB12A9
:101F2000454482EA7B62154466194FEA733241EAFE
:101F30000304044001EA030882EAB30244EA080405
:101F400082EAB35222444FEAF74484EA77442A44AF
:101F500084EA9727D9F82050049CA6444FEAB54458
:101F600084EAF51484EAD505019C7744E46D3D4488
:101F70008CEA0B0E2C440EEA060E4FEAF6278EEA88
:101F80000C0E544487EAB617744487EA76672744F0
:101F900000EB070843EA02044FEA7230C9F85C50CC
:101FA00080EAB2000C4003EA020580EAB2502C43FA
:101FB0000444019820300190079809F12009484510
:101FC00027447FF425AECDE90D6BCDE90872CDE94C
:101FD0000A31CDF83CC0CDF83080059B00991B68D4
:101FE00051F8042B00911344059A42F8043B069BD8
:101FF00005929342F1D1002051B0BDE8F08F00BFAF
:102000002DE9F843036803F03F079B18036024BFE2
:102010004368013305460E46144628BF43609FB10E
:10202000C7F1400991450FD800F128084A4608EB4E
:10203000070009F023FD41462846FFF783FCB0B9AD
:10204000403C3C444E440746264404E02846FFF703
:1020500079FC60B9403C3F2CA6EB0401F6D844B1B2
:1020600005F128002246384409F008FD0020BDE8AB
:10207000F8832046FBE70AB1FFF7C2BF104670475E
:10208000036803F03F035A1C034470B5382A0D4619
:1020900000F128064FF08001044683F8281006EB73
:1020A000020061D8C2F13802002109F0F5FCD4E940
:1020B00000315A0F42EAC102DB0012BA1BBA226693
:1020C000636631462046FFF73DFC00284BD1E37A9A
:1020D0002B7063896B70A3681B0AAB70A368EB70ED
:1020E000E37B2B71E3896B71E3681B0AAB71E368D7
:1020F000EB71E37C2B72638A6B7223691B0AAB72F0
:102100002369EB72E37D2B73E38A6B7363691B0AAC
:10211000AB736369EB73E37E2B74638B6B74A3699E
:102120001B0AAB74A369EB74E37F2B75E38B6B75B0
:10213000E3691B0AAB75E369EB7594F823302B76E2
:10214000638C6B76236A1B0AAB76236AEB76A36EED
:102150004BB994F827302B77E38C6B77636A1B0AB3
:10216000AB77636AEB7770BD0021C2F1400209F0E2
:1021700093FC31462046FFF7E5FB0028F3D10146EA
:102180003822304691E7036801221B690021184775
:10219000036800221B69114618476FF0150070474D
:1021A00004F0E2BC04F0D0BC04F0E0BC04F0C4BC19
:1021B00004F0DEBC38B505460A48FEF799F8284613
:1021C00004F040FC044650B9284604F0CDFC01F070
:1021D00009FF68600348FEF78BF8204638BD4FF0D2
:1021E000FF34F7E7E805002038B505460948FEF753
:1021F0007FF8284604F044FC041E686818BF0124D8
:10220000644208B101F004FF0248FEF771F820466D
:1022100038BD00BFE805002073B50A4E0D460446E0
:102220003046CDE90032FEF763F8009B01992A465B
:10223000204600F094FA04463046FEF759F820464E
:1022400002B070BDE80500202DE9F74F14460F4697
:102250000646994604F088FC0546304604F06CFCBE
:102260008346304604F082FC0090304604F080FC47
:10227000B4FBF5F105FB11488246B8F1000F5DD1C2
:10228000002F5BD0009A09EB04030BEB02008342A2
:1022900054D82C48FEF72CF84146B9F1000F44D031
:1022A000002940D12146304604F04EFCB4FBF0F842
:1022B00000FB1848A0EB0808C84528BFC846BB0764
:1022C00001D1A84528D2A84528BFA8467068424633
:1022D000394609F0D3FBA84506D27068A5EB080281
:1022E0005146404409F0D8FB72682B464FF0100B62
:1022F00021463046CDE9002304F0E6FB014630B12B
:10230000BBF1010BDDE90023F2D14FF0FF31A9EB66
:10231000080944444744C0E7B8FBF5F805FB08F357
:1023200098463A46E2E74FF0FF3106480091FDF744
:10233000DFFF0099084603B0BDE8F08F4FF0FF3192
:10234000F8E700BFE80500202DE9F0410D461646EC
:10235000074604F0F1FB0446384604F007FC20442D
:10236000AC19A04204D24FF0FF342046BDE8F08102
:1023700019D81548FDF7BCFF00240EB3F4B94FF08F
:1023800010082946384604F07DFB044620B1B8F118
:102390000108F6D14FF0FF342946384604F0D4FB4B
:1023A000361A0544E9E72146384604F0CDFBB4FB74
:1023B000F0F101FB10400028D5D1DAE74FF0FF34EF
:1023C0000148FDF795FFD0E7E805002010B5094C5E
:1023D00003460144002099420AD013F8012B80EAF9
:1023E00002600822400028BF6040013AFAD1F2E7BB
:1023F00010BD00BFB71DC10410B5836B012B86B0A3
:10240000044604D9002084F83C0006B010BDDBB2BD
:102410000493436B039390F94230029390F9413057
:10242000019390F94030009390F93F3090F93E20AD
:1024300090F93D10043007F00BF8B0FA80F0400935
:10244000E1E7000038B580F83E204FF4003280F814
:102450003F3082609DF91030079A80F840308263E7
:102460009DF91430104A80F8413042639DF91830CC
:102470000E4A0F4D80F842300023C0E91223056058
:1024800080F83D10436443608381036380F83C30EF
:102490000446FFF7B1FF20B906490748422201F080
:1024A0002BF8204638BD00BF40420F00F923000042
:1024B00018CC0000E0CB000002CC00002DE9F04772
:1024C0009DF820709DF82460022F044689469246AC
:1024D000984620D8114BDB5DEBB1B6FBF3F503FB5F
:1024E000156515F0FF0516D103689B6898479DF8A0
:1024F000283063730B9B2363236826732046DB68B5
:1025000084F8089084F809A084F80A80E772984754
:102510002846BDE8F0874FF0FF30FAE70ACC00000C
:1025200038B590F83C3004460D468BB103689B6883
:10253000984765632946201D06F0BAFF23680038D6
:1025400018BF01204542DB6820469847284638BD21
:102550004FF0FF35FAE7F8B504460F46164600215E
:10256000202210301D4609F097FA237A2374791C33
:1025700014BF00230123A374637A18BF6774237503
:10258000721CA37A637514BF002301232377E37AB7
:1025900084F82030237B18BFA66184F821306B1C9F
:1025A00014BF0023012384F82830236B84F82C30D7
:1025B000637B18BF656284F82D30F8BDF7B50093D2
:1025C00090F83C300191DDE90874054616460BB3DE
:1025D000ECB1E7B12368EBB103689B689847DDE98C
:1025E000002133462846FFF7B6FF23463A4605F159
:1025F0001001281D07F002F82B68041E18BF0124E3
:10260000DB68284664429847204603B0F0BD6FF06F
:102610000104F9E74FF0FF34F6E7F7B5009390F8BF
:102620003C300191DDE90874054616460BB3ECB168
:10263000E7B12368EBB103689B689847DDE90021A7
:1026400033462846FFF787FF23463A4605F1100137
:10265000281D06F0F9FD2B68041E18BF0124DB6855
:10266000284664429847204603B0F0BD6FF001044D
:10267000F9E74FF0FF34F6E730B51D4690F83C30EF
:1026800085B0CDE902210446FBB103689B689847F9
:10269000DDE902214FF0FF332046FFF75CFF0A9B84
:1026A0000193099B00932A46089B04F11001201D09
:1026B00006F013FE2368003818BF01204542DB688E
:1026C00020469847284605B030BD4FF0FF35F9E762
:1026D00008B50248FDF70CFE08BD00BFF00500205C
:1026E0000020704700290CBF6FF0180000207047D1
:1026F000012070476FF0150070476FF015007047AC
:1027000084B001A880E80E0004B0704703681B681D
:102710001847000010B50446074B23600022002331
:10272000C4E9022300230846A161C4E90433034934
:1027300000F012FA204610BD30CC00000D2700003A
:1027400007B5009000F10801806900F043FA03B07A
:102750005DF804FB00F10801806900F053BA08B588
:1027600010461A4609F08AF9002008BD37B590F9DD
:1027700000300D46591C04D114491548212200F09F
:10278000BBFE0124AAB11F2B86BF124A03F01F0310
:102790004FF0A04204FA03F3C2F80835012101907A
:1027A00004F048FB0198294603B0BDE8304004F02E
:1027B0001FBB1F2B86BF074A03F01F034FF0A04229
:1027C00004FA03F3C2F80C35E8E700BF34CC00008C
:1027D0006FCC00000003005037B50D46044601924F
:1027E00004F0E2FA013507D0019A0021204603B037
:1027F000BDE83040FFF7BABF03B030BD0022FFF79D
:10280000EBBF00000048704788CC0000024B1B68FB
:102810000BB10248184770470802002088CC00001E
:102820002DE9F047466896F8327087BB03685B680D
:102830009847346A84422AD0336996F9342030624A
:10284000041B1C40B368A4FB0345CAB1736A14EBB4
:10285000030845F10009002A1BDBC2F12001A2F1A7
:10286000200328FA02F409FA01F10C4329FA03F3D0
:102870001C4329FA02F504FA02F2A8EB0202726282
:10288000D6E90A321B1945EB0202C6E90A32BDE855
:10289000F087D6F80CA03B4652464046494609F020
:1028A0005BFF04460D460AFB1082E8E7824206D928
:1028B0008A420BD9884294BF002001207047884289
:1028C00006D98A428CBF0020012070470120704742
:1028D000002070472DE9F3474668376B27F07F47A4
:1028E00027F0FF070446002F63D1FFF799FF7368B5
:1028F000002B61D0D3E90001D6E90A238B4208BF3F
:10290000824205D323685B6902B0BDE8F0471847EF
:102910006568D5E90A32B0EB030861EB0209D5E935
:1029200006234B4508BF4245D5F814A020D3EB68D9
:1029300095F933C0A3FB080103FB0911BCF1000F9B
:1029400013D0AA68531EC01841F10001BCF1000F5A
:102950001CDBCCF12002ACF1200320FA0CF001FAD0
:1029600002F2104321FA03F31843824528BF82463E
:102970002A6A336A92442A690AEA0202934209D116
:102980001349144840F2C91200F0B6FD3B4609F065
:10299000E3FEEAE72368019210461B699847236823
:1029A0005B689847019A0146306AFFF77FFF00286D
:1029B000A8D102B0BDE8F0877369306A3269184463
:1029C00023681B69104002B0BDE8F047184700BFFC
:1029D000B4CC0000DBCC0000436893F830202DE934
:1029E000F3470646002A40F0838093F83230002BEC
:1029F0007ED103681B6898473368DB699847036892
:102A00002BB93D493D4800931A4600F075FF3C4CF8
:102A100019462246B1FBF4F402FB14141146002CB3
:102A2000F7D17768364CB4FBF2F10125B9601F2469
:102A3000013C02D14FF0FF3403E005FA04FC61458C
:102A4000F6D1B3FBF2F287F83340FA601F2401237A
:102A500003FA04F5AA4203D0013CF9D14FF0FF3448
:102A600087F8344043681D1F1C2D05D900232549D4
:102A7000254800931A46C8E7202B1CBF0120984028
:102A80004FF0070404FA05F414BF00F1FF304FF0D3
:102A9000FF30002338617C6112F1FF304FEAE479A6
:102AA000A4FB014501FB095543F1FF31201845EB1B
:102AB00001019A4609F050FE3368C7E90601C7E9EB
:102AC00000AA5B68984773683862002101220020E1
:102AD000C3E90A01C3F824A030461A8683F832A05D
:102AE000FFF79EFE304602B0BDE8F047FFF7F2BEAA
:102AF00002B0BDE8F08700BFFFCC00000E010480EB
:102B000040420F0018CD0000050104802DE9D003DC
:102B100016461F464268059B8B60C1E900675368F3
:102B2000002433B9CB606CB95160BDE8D003FFF726
:102B3000D1BED3E900894F4508BF4645F2D31C46B4
:102B4000DB68EEE7D2E90A23BB4208BFB242E1608C
:102B5000EBD2BDE8D003704738B505460C46FFF709
:102B60003BFF00F077FD6B681C60BDE8384000F06B
:102B700087BDF8B5054600F06DFDD5E90034DB688A
:102B8000984794F832301BB1BDE8F84000F078BDAA
:102B9000012384F831306368ABB12846FFF740FE6B
:102BA0006168D4E90A67D1E900239F4208BF9642D1
:102BB00009D36B685A68CB6863602368002BEAD03E
:102BC00090689847E7E7002384F831302846FFF7FC
:102BD00081FED9E710B586B0CDE904210393089CA6
:102BE000029000F037FD0298FFF71AFEDDE903328C
:102BF000059902980094FFF789FF06B0BDE81040E0
:102C000000F03EBD38B505460C4600F023FD6A686D
:102C10005368A34209D1DB6853602846FFF75AFE88
:102C2000BDE8384000F02CBD1346002BF8D0DA6820
:102C3000A242F9D1E268DA60F2E738B50446FFF75C
:102C4000CBFE00F007FD2046FFF7EAFD6368D3E9FD
:102C50000A4500F015FD2046294638BD91F90C20A3
:102C600091F9041004F026BC09F07CBB10B5124C9D
:102C7000206908F097FEA06908F094FE606808F0EB
:102C800091FEA06808F08EFE7F2318222370002397
:102C9000C4E903234FF48062C4E905238022E26182
:102CA000064AE363C4E90133C4E90933C4E90B23E9
:102CB000C4E90D3310BD00BF0C020020692C0000D8
:102CC00038B51E4C23691BB9606908F063FE2061AA
:102CD000A3691BB9E06908F05DFEA0616368A5699E
:102CE00025621BB9E06808F055FE6060A3681BB957
:102CF000E06808F04FFEA060236923B11DB163684E
:102D00000BB1A36823B9FFF7B1FF4FF0FF3038BD17
:102D1000E2690021284608F0BFFEE26860680021F1
:102D200008F0BAFEE268A068002108F0B5FE62690A
:102D30002069002108F0B0FE0020E8E70C02002026
:102D4000044A0146936818B1D268184609F065BB79
:102D5000187070470C0200202DE9F04F8B4D2DEDBF
:102D6000028B08EE103A6B6B83B080468946924620
:102D70001BB19847EB6B0133EB632B69DBB100228E
:102D800018F0800F1A7025D1B9F1000F11D06868C2
:102D900003781BB1494609F053FB50B9A868037882
:102DA000002B00F0ED80494609F04AFB002840F076
:102DB000E780AB692B62AB6B3BB10023EC6BEB6341
:102DC000AB6B013C9847002CFADC03B0BDEC028BE6
:102DD000BDE8F08FBAF1000FEBD0B9F1000FE8D0E9
:102DE000EB6A002BE5D02B7803EA0802D106E2D08B
:102DF0001A06D5E9047402D4B8F1010F12D118EE05
:102E0000103A52462146384601F073FBB8F1010FE3
:102E100054D12B6B002B51D0286998472B6B5C4801
:102E20009847C6E713F0400064D09B0644D5594A42
:102E30002146384601F04EFB84423DDD00283BDD53
:102E40000744241AB8F1080F52D03AD8B8F1020F4B
:102E50003CD0B8F1040F49D00026B3466B6ADBB111
:102E600000215246084618EE103A8DED018A01F015
:102E700040FB002E304418BF04266B6A304498474C
:102E8000454A03462146384601F024FBA04203DAB6
:102E90000028C4BF3F18241AB8F1080F6DD02ED8EF
:102EA000B8F1020F31D0B8F1040F63D03B4A21468C
:102EB000384601F00FFB2EE0002CC3DCEB6A2869DA
:102EC000AEE7B8F1100FC7D1354B00E0354B324AB1
:102ED0002146384601F0FEFAA04206460DDA0028E7
:102EE00001DD0744241A4FF0010BB7E72E4BEEE744
:102EF0002E4BECE7002CAFDCE0E70026F3E7B8F15F
:102F0000100FD3D12A4A4B4601E02A4A4B462146AC
:102F1000384601F0DFFAA042D0DA0028CEDD261ACA
:102F2000074418EE103A52463146384601F0E1FAAD
:102F30008642C3DD0028C1DD361A002E0744BDDD00
:102F4000AB6A73B19847144A03463146384601F0DC
:102F5000C1FA8642B2DD0028B0DD361A002E0744E1
:102F6000ACDDBBF1000FA9D0134A3146384601F061
:102F7000B1FAA3E7114A4B46C9E7114A4B46C6E7E7
:102F8000BAF1000F7FF42CAF13E700BF0C02002052
:102F9000C7CF000054CD000064ED0000AECD0000AE
:102FA0006CCD00005ACD000060CD000066CD000061
:102FB0009FCD000072CD0000BDCD000081CD00008E
:102FC00090CD00000CB407B504AB53F8042B01936B
:102FD000FFF7C2FE03B05DF804EB02B0704707B51F
:102FE000019000F037FB019803B05DF804FB07B5D2
:102FF000019000F045FB019803B05DF804FB000070
:1030000010B50446FFF786FB094B2360A069FFF764
:1030100014FE00220023C4E90C230023C4E90801A4
:10302000C4E90A01C4E90E3384F84030204610BDDB
:1030300018CE000038B590F83F50044625B1094934
:1030400009488E2200F058FAFFF784FB94F84030CC
:10305000A5872BB184F84050BDE8384000F04ABD48
:1030600038BD00BFC2CD0000E9CD000010B5044658
:1030700001F1300000F081FAC4E90001204610BDE2
:10308000D0E90C32013342F10002C0E90C32D0E940
:103090000A3213F57A7342F10002C0E90A3270472E
:1030A000D0E90A2312F57A7243F10003FFF748BB17
:1030B000F8B50D4604468869FFF7BFFDD5E90A3229
:1030C000C61A61EB0207002F08BFB6F57A7F05D25A
:1030D00000220023C4E900232046F8BD002F08BFCA
:1030E000B6F5FA6F01D20122F3E7002E77F1010362
:1030F0004FF47A724FF000033046B4BF00213946D6
:1031000009F02AFBC4E90001E6E7000091F83F302E
:10311000F7B505460C4613B991F83C6026B1124943
:103120001248E52200F0E8F96846FFF7C1FFDDE943
:1031300000324FF47A71A663A3FB016701FB0277AB
:10314000D4E90A10891947EB0000C4E90A10D4E950
:103150000C105B1840EB02022846C4E90C32C5E9AA
:10316000003203B0F0BD00BFC2CD0000F3CD0000BF
:10317000DFB51F4690F83F300446164623B120497C
:103180002048582200F0B8F990F83C3063B9014665
:1031900002A8FFF7BBFFDDE90223BB4208BFB24232
:1031A00004D3012384F83D3004B0D0BD214602A8E9
:1031B000FFF75CFF4FF47A73A6FB030103FB0711D3
:1031C000D4E90823821894F8400041EB030301215D
:1031D000A18760B9A069006890F8200038B984F828
:1031E0004010CDE9002300F06FFCDDE90023002151
:1031F000204684F83E1004B0BDE8D040FFF7A0BAE6
:10320000C2CD0000E9CD0000024B4FF080625A6051
:10321000704700BF00ED00E090F83C3010B5044668
:103220004BB1002380F83C3090F83E3013B90123B5
:1032300080F83D3010BD90F83F30002BFAD0836B02
:1032400001338363FFF7E0FF2046FFF719FF2046B5
:10325000FFF726FFEEE70000102300F007B8202359
:1032600000F004B8302300F001B840239C46F0B4CD
:1032700004AE7546E80801D3EFF309860E4F0FCE72
:103280000FC70FBC0FC74046494652465B460FC7A3
:103290001DCE3100A60A00D304316E0900D2483198
:1032A0001FC7EFF309806946EFF3148663C76046D2
:1032B000014900F079F800BF00010020F0B52C4E64
:1032C0002C4F85B000243546214656F8042B38464D
:1032D000013400F0A5F90D2CF6D1AB6C02936B6CA8
:1032E00001932B6C244C0093D5E90E23696B234882
:1032F00000F096F92168224800F092F9E16AA26A8A
:10330000A36AA06A266BE76B000CCDE90167009009
:10331000C3F307231B48D2B200F082F9A36A1E064A
:1033200003D5616B184800F07BF9A36A180403D534
:10333000A16B164800F074F9EB6C190712D514480C
:1033400000F06EF92B6DDA070FD5124800F068F91E
:10335000EB6C5B074CBF1048104805B0BDE8F0406F
:1033600000F05EB90E4800F05BF90E48EEE700BFD2
:10337000000100201CCE000000ED00E02ACE00007D
:1033800079CE000087CE0000D6CE0000E4CE00004B
:10339000F2CE000001CF000031CF00003DCF000091
:1033A00021CF00000ECF000007B504460D461A4895
:1033B000012100F0D9F868BB184800F031F9302C31
:1033C00019D0402C1CD0202C1FD11548154C00F0D2
:1033D00027F9154800F024F9FFF770FF134800F0B3
:1033E0001FF90D4B00221A700023114900932A4641
:1033F000204600F081FA0F480F4C00F011F9E8E781
:103400000E480F4C00F00CF9E3E70E480E4C00F0AC
:1034100007F9DEE70024E7E7B435002049CF0000D4
:1034200072CF00003E01FF809FCF0000AACF0000B6
:10343000C9CF000081CF00003F01FF808ACF00008C
:103440004001FF8095CF00003D01FF8008F08CBB5C
:1034500008F03ABB08F028BBF0B572B6224A234FF9
:10346000002313604FF0E0224FF0FF36516801F067
:103470000F0101311D469A0002F1604202F56142DE
:103480004FEAC30CC2F88060C2F88061002202EBF0
:103490000C043C440132082A84F80053F7D101336C
:1034A0009942E8DC124B4FF020625A6040F2FA5227
:1034B0009860DA6000221D6111469C1801320C2AC6
:1034C0002176FAD14FF0FF3259629A62094ADA62E4
:1034D0001F221A63D0E90031002282F314889D462E
:1034E00082F310880847F0BD10E000E000E100E042
:1034F00000ED00E0020000C007B50B460092014657
:103500000022014800F0F8F94401FF80034601223F
:10351000D3E84F0FC3E8412FC0B20029F8D170475C
:10352000D0E85F3F5B18C0E8523F002AF8D198B25C
:103530007047034653E8000F401843E80002002A92
:10354000F8D17047D0E85F3F5B1AC0E8523F002ACD
:10355000F8D198B27047034653E8000F401A43E889
:103560000002002AF8D170470346D3E84F0FC3E8A2
:10357000421FC0B2002AF8D1704738B5044600F0A7
:1035800069F8D4E9004500F07BF82046294638BDAB
:1035900008B500F05FF8FEE773B500220146044667
:1035A000022000F005FC0D2600F054F8002225460C
:1035B00014F8013B1BB900F063F802B070BD0A2B90
:1035C00009D10D2A07D001220DF1070102208DF843
:1035D000076000F0EDFB01222946022000F0E8FB25
:1035E00014F8012CE3E7000000B5A3B002460B4637
:1035F00001A8842100F07DFF832806D9074B1A68B3
:103600001B79CDF883208DF88730002802DD01A8D2
:10361000FFF7C2FF23B05DF804FB00BFD9CF000065
:103620000FB407B504A951F8040B0191FFF7DCFFB3
:1036300003B05DF804EB04B07047EFF31080C043B3
:1036400000F001007047EFF30580003818BF01203B
:103650007047000008B503F0E5F9064A1368591CE5
:1036600004D1054905483F22FFF746FF01331360A7
:1036700008BD00BF30060020DECF000008D00000EB
:10368000044A136823B1013B13600BB903F0D2B9AC
:10369000704700BF3006002008B50B48FFF736FF23
:1036A00028B1FFF7D7FFBFF34F8F20BFFDE7FFF72C
:1036B000CAFF08B1FFF76CFFFFF7BFFF0028F9D082
:1036C000012000F0D0FA00BF7C0600202DE9F04177
:1036D0002E4C0E462168C1F34173032B0CBF4D42A3
:1036E0008DB2C1F307438046174629482A46FFF7A3
:1036F00097FF6FF498731D44132D0FD8DFE805F082
:103700000A2D3033363C393F0E0E0E0E0E0E0E0EC5
:103710000E0E0E42A1681F48FFF782FF4046FFF7DA
:103720003BFF61681C48FFF77BFF4EB11B48FFF76A
:1037300033FF3046FFF730FF19483946FFF770FF77
:10374000A1681848FFF76CFF21681748FFF768FF6A
:10375000BDE8F0411548FFF763BFA1681448DBE7F7
:10376000A1681448D8E7A1681348D5E7A1681348B1
:10377000D2E7A1681248CFE7A1681248CCE7A16858
:103780001148C9E71148FFF74BFFC7E78006002043
:1037900039D000008AD0000032D1000043D10000AF
:1037A0004BD100004FD1000063D10000B0D1000028
:1037B000A0D00000B0D00000BFD00000D2D00000E8
:1037C000E6D00000FAD0000009D100001FD10000AF
:1037D0007047000070B5274C90B034EA200428BF31
:1037E00004460D46164600213C2201A808F054F973
:1037F000214B00942344012B029505D91F4B9C4279
:1038000002D0033B9C422ED1EB6B01936B6B079371
:10381000FFF720FF1A4A13680133012B13600BD105
:103820006D460FCD174C0FC40FCD0FC40FCD0FC475
:1038300095E80F0084E80F006C460FCC124D0FC5C1
:103840000FCC0FC50FCC0FC594E80F0085E80F0013
:103850000E4B1B68A5F130004BB19847FFF710FFE6
:10386000002010B070BD0196CDF81CD0D0E7FFF756
:10387000AFFFF3E70101FF80C2FE007F4001FF8040
:10388000340600203C060020800600203806002078
:103890007047000038B5164CD4F88030002B25DA7C
:1038A0003C2104F18000FEF791FDD4F8BC30834246
:1038B0001CD1D4F8B830CBB90E4B012504F18000EF
:1038C0001D70FFF7E5FFD4F8B430002B0EDD3C216E
:1038D00004F18000C4F8B850FEF778FDD4F8B43095
:1038E000C4F8BC00002B01DDFFF7D6FE002038BD78
:1038F000000100207D06002080B506460C462748C2
:103900000121F04617461D46FFF72EFE48B94246F4
:1039100039463046FFF75EFF029A29462046FFF7F8
:10392000D5FE1F4E1F48204C1E4D3C21FEF74EFD7C
:10393000D6F8BC3083420ABFD6F8B4300123013335
:1039400063633C2100232046A363FEF73FFDE06351
:10395000FFF780FE0FCC0FC50FCC0FC50FCC0FC5E6
:1039600094E80F0085E80F00FFF78AFE0F48FFF785
:1039700057FED6F8B410002902DD0D48FFF750FEBF
:10398000BFF34F8F0B490C4BCA6802F4E06213433C
:10399000CB60BFF34F8F00BFFDE700BFB435002001
:1039A000000100208001002080060020CAD1000014
:1039B000FDD1000000ED00E00400FA0538B5064C2A
:1039C00023683BB9FEF71EFF044D01462846FFF76A
:1039D00017FB2560206838BD08070020C0060020BE
:1039E00008B5836823B9054B1B6893F83D0008BDF3
:1039F000C06898470028F6D0F9E700BF0807002004
:103A0000F7B5194D04464FF0FF366FF000472046DA
:103A1000FFF7E6FF30BBD4E90023BB4208BFB24248
:103A200002D02868FFF7A4FB01A8FFF7D8FA2046C8
:103A3000FFF7D6FF98B9D4E90023BB4208BFB242D2
:103A400007D100F07BF801A8FFF7D1FABFF36F8F21
:103A5000DDE72B6893F83C30002BF2D1F3E701A8A7
:103A6000FFF7C5FA03B0F0BD0807002070B50C469B
:103A700086B01646054620B909B11046884706B0FB
:103A800070BD431C18D0FFF799FF01466846FFF749
:103A90003DFBDDE90023521943F10003CDE9022388
:103AA000CDE90446FFF78AFF02A8FFF7A9FF054BFF
:103AB0001868FFF7BFFAE2E74FF0FF326FF00043FC
:103AC000ECE700BF0807002013B5074C0121204692
:103AD000FFF726FD034628B90090228803490448D1
:103AE000FFF70AFF02B010BD0C07002047D200000C
:103AF0002301048013B5094C01212046FFF722FD64
:103B00004FF6FF73984206D10023228804490548E6
:103B10000093FFF7F1FE02B010BD00BF0C070020BC
:103B200069D2000024010480034B188880B2B0FAE7
:103B300080F04009704700BF0C07002008B5FFF770
:103B400089FDFFF7F1FF28B103F0F0FEBDE8084062
:103B5000FFF796BD03F0C6FEF8E76FF01C00704754
:103B60006FF01500704701207047002070477047C4
:103B7000F8B5074E15460C468F18BC4205D014F810
:103B8000011B304603F034FEF7E72846F8BD00BFBE
:103B90008009002038B511F001048DB205D0084825
:103BA00003F05CFE041E18BF0124EB0605D5044893
:103BB00003F074FE08B144F01004204638BD00BF85
:103BC0008009002010B5044607F0ECFE204610BD29
:103BD00010B50C462AB1044803F0CCFD207001203A
:103BE00010BD1046FCE700BF8009002038B5084B27
:103BF0000360084B1B680446154633B90648FFF7B7
:103C00002DF80548294603F035FD204638BD00BF94
:103C100034D30000EC090020800900200020704708
:103C20000020704708B5012000F01DF8074A084938
:103C300013681844884289BF064B10600C224FF06D
:103C4000FF308CBF1A601846704700BF4C0300203D
:103C500000F00320C035002008B508B1FFF798FC3C
:103C6000FEE70120704708B5FFF7F6FF0120704717
:103C70007047704708B5FFF7FBFF08BD08B5FFF7B1
:103C8000F8FF08BD08B5037803F00303012B10D03B
:103C9000037803F00302012A0BD02AB10649074832
:103CA00040F29B62FFF728FC43F0020303700120FF
:103CB00008BD0020FCE700BF87D20000B3D200009F
:103CC00008B5037803F00302022A05D00549064827
:103CD00040F2A462FFF710FC23F0030343F001035A
:103CE000037008BD87D20000D1D200003F2870B514
:103CF00004462EDC184D55F820305A1C13D10228EA
:103D000011DCFFF78DFF034658B92046FFF786FF09
:103D1000034630B9114E3378BFF35B8FDB0704D510
:103D20000F4B45F82430184670BD3046FFF7AAFF08
:103D30000028F5D00B490A484FF4E132FFF756FF4F
:103D40003046FFF7BDFF084A08490548FFF789FFDD
:103D5000E6E70023E7E700BF4C0200201007002041
:103D6000940700207CD30000000200206F3B00007D
:103D700038B50546FFF7BAFF0B4B002443F8254042
:103D800030B907F06BFB092303604FF0FF3038BDFB
:103D900003685B699847051E04DA07F05FFB6D4214
:103DA0000560F2E72046F2E74C020020FFF7E0BF93
:103DB00013B5CDE90021FFF799FFDDE9002140B9F6
:103DC00007F04CFB092303604FF0FF34204602B09C
:103DD00010BD0368DB689847041EF7DA07F03EFB66
:103DE00064420460F0E713B5CDE90021FFF77EFFE0
:103DF000DDE9002140B907F031FB092303604FF0F2
:103E0000FF34204602B010BD03689B689847041E2B
:103E1000F7DA07F023FB64420460F0E710B5FFF720
:103E200065FF044628B907F019FB09230360204603
:103E300010BD0368DB699847041EF8DA07F00EFB33
:103E4000644204600024F2E72DE9F74FB2F1000864
:103E500005460E4609DA07F001FB162303604FF012
:103E6000FF34204603B0BDE8F08FFFF7D7FF0446CC
:103E700060B31F4ADFF87CA0535D00273C469146A3
:103E80004FF00D0BB84521DDF25D0A2A1BD10D2B39
:103E9000019318D0BC420CDA3A1B31192846FFF7BF
:103EA00087FF0028019BDADB0444A742D9DC09F82C
:103EB0000530012251462846FFF77AFF0028CEDB65
:103EC000CFD009F805B0F35D0137DBE7A045C8DDC9
:103ED000A8EB040231192846FFF76AFF0028BEDB71
:103EE00024181FBF3619024B16F8012C5A55B8E793
:103EF0005407002008D30000FFF790BF7FB5002AC9
:103F000004460D4606DA07F0A9FA162303604FF0BF
:103F1000FF3019E00192FFF781FF019AE8B1114EDD
:103F200001220DF10F012046FFF75DFF0028EEDBB7
:103F30000AD09DF80F300D2B08D1325D0A2A335577
:103F4000EED00A232B70012004B070BD0A2B02D1E1
:103F5000325D0D2AF3E73355F4E729462046FFF793
:103F600042FFF1E71407002013B5CDE90021FFF768
:103F7000BDFEDDE9002140B907F070FA09230360B6
:103F80004FF0FF34204602B010BD03681B6998470C
:103F9000041EF7DA07F062FA64420460F0E7FFF704
:103FA000E3BF38B50D46FFF7A1FE044630B907F070
:103FB00055FA092303604FF0FF3038BD0368DB6911
:103FC0009847002814BF4FF400534FF400436B6030
:103FD000236820469B6A984728610020EDE7FFF799
:103FE000E0BF00001FB5039007F0D4FC039A03461E
:103FF00020B9009003490448FFF77EFC05B05DF846
:1040000004FB00BF0AD300001F01018007F0CABCF7
:1040100007F0C8BC7047704708B5094B094A1A60D9
:10402000094B9B1A094A1360094B0A4A1A600A4B4A
:104030009B1A0A4A136002F081FFFFF7ECFF08BDEC
:10404000A407002000F0032000000420A0070020A7
:104050009C070020C835002000F0032098070020AE
:1040600008B5FFF7D7FFFFF715FCBDE8084006F0DD
:10407000BDBF00221146FFF7F9BC70B514461268A7
:104080006FF00046B2420546049807D238B10146A7
:10409000184607F0CBFB431C05D1206070BD15B15D
:1040A0008A4238BFAB54236801332360F6E700002F
:1040B0002DE9F04F2DED028B8DB005469DF8703047
:1040C0009DF8689004930E4617460021142207A815
:1040D000DDE918AB069107F0DFFC049B002B14BF51
:1040E00030232023B9F1010F08EE103A48D1BAF17C
:1040F000000F7BF1000343DADAF1000A6BEB4B0BA4
:10410000CDF80C90A9F10203DBB24FF00008059343
:10411000059B012B5ED8B9F1020F0CBF3C4A3D4A0A
:104120000AF00F03D35C06AA02F808304FEA1A130C
:1041300043EA0B734FEA1B129A4693465AEA0B0363
:1041400008F1010444D1039B23B3049B3BB11D9BA5
:1041500000933A462D2331462846FFF78EFF1B9BDE
:1041600008F102049C421ADB049B3BB91D9B00939F
:104170003A462D2331462846FFF77FFF013C1FE0DA
:104180005AEA0B0302D000230393BBE730238DF8D8
:10419000183001241B9B9C4212DA002303931D9BC1
:1041A00000933A4618EE103A31462846FFF765FF6D
:1041B0001B9B013BA3421B93F1DC039B002BD3D140
:1041C0000DF11808CCB90DB0BDEC028BBDE8F08F35
:1041D000A0469DE7504659460A22002308F0BCFA43
:1041E00006AB303203F80820504659460A22002315
:1041F00008F0B2FA82468B46A0E71D9B0093013C73
:104200003A4618F8043031462846FFF736FFD9E71A
:1042100094D30000A4D300002DE9F04F8BB01C46CE
:104220000023DDF85080099306460D461746AAB1D3
:10423000994213DB0CBF012301F1FF3507934FF0C7
:10424000000B17F80B306BB946B1079B33B9099BCC
:10425000AB4295BF079A079BF254735509980BB070
:10426000BDE8F08F252B40F02C810BF1010A17F8E7
:104270000A30203BDBB20D2B07D842F6090222FAA6
:1042800003F3DB0748BF0BF1020A17F80A302A2BA9
:1042900047D100210AF101020434084617F802C090
:1042A000BCF12E0F07EB020362D193F801C0BCF101
:1042B0002A0F51D000220692C7F1010909EB03022F
:1042C00013F801CFACF1300C5FFA8CFEBEF1090F90
:1042D00047D9BB5C682B4ED1BB185B78682B0CBFF1
:1042E0007223112303F0030A924417F80A90B9F1DC
:1042F000640F02D0B9F1690F62D1822B55D1073416
:1043000024F00704F4E80223CDE904080391012115
:104310000291CDE90023294609AA3046FFF7C8FEDD
:1043200087E0302B16D10AF1010A17F80A30302B3A
:10433000F9D00120BA440021AAEB07021AF8013B88
:10434000303B5FFA83FCBCF1090FA7D80A2202FBBD
:104350000131F1E70020EDE754F8043B0232069307
:10436000B7E7069A4FF00A0E0EFB02C20692A5E7C7
:104370006FF00043F3E76C2B06D1BB185B786C2B16
:104380000CBF82232123ADE76A2B08D07A2B08D0FB
:10439000742B08D04C2B14BF00236123A2E73123D8
:1043A000A0E741239EE751239CE7112B54F8042BEF
:1043B00004D0722B08BF52B2D317A5E712B2FBE7A5
:1043C000B9F1750F03D009F0DF02582A24D1822BEE
:1043D0000CD1073424F00704F4E80223B9F1750F77
:1043E000CDE90408039111D1002191E7512B54F834
:1043F000042B09D0722B03D0112B03D00023EDE73F
:10440000D2B2FBE792B2F9E7D317E7E7B9F1580F59
:104410000CBF032102217BE7B9F1630F0CD154F8E3
:10442000043BCDF80080DBB209AA29463046FFF7ED
:1044300024FE0AF1010B04E7B9F1730F15D154F80A
:1044400004BB0BF1FF3919F8013F002BF1D0069A9C
:10445000A2EB09021BEB020FEBD0CDF8008009AAFA
:1044600029463046FFF709FEEDE7B9F1700F1BD181
:1044700054F8049BCDF80080302309AA2946304621
:10448000FFF7FBFD782309AACDF8008029463046C6
:10449000FFF7F3FD0023CDE903334A4603230293DC
:1044A000CDF81480D31734E7CDF80080252309AA6E
:1044B00029463046FFF7E1FDB9F1250F18BFDA466E
:1044C000B7E7CDF8008009AA29463046FFF7D5FDA9
:1044D000DA46AEE70CB41FB506AB002453F8042B44
:1044E00000940393FFF798FE04B0BDE8104002B0BB
:1044F000704713B500240094FFF78EFE02B010BD84
:10450000FFF7B7BD00207047002070470120002151
:104510007047D0E90601704700487047B4D30000E7
:104520002DE9F04F85B0DDE90E6A15460446D0E965
:10453000048904301F46FDF737FEAB19009347EBA3
:104540000A030193236883469B6B20469847DDE965
:104550000023994208BF904203D2002005B0BDE875
:10456000F08F18EB0503029349EB07030393DDE992
:1045700002892368B8EB0B08196B2A463B46204694
:1045800069F10009884702460B464046494608F053
:10459000E3F81343E1D12368196B009B18EB06067F
:1045A00049EB0A0A13F1FF32019B204643F1FF3326
:1045B000884702460B463046514608F0CDF8134373
:1045C0000CBF01200020C9E7F0B590F8207085B03D
:1045D000DDE90A6C0446039115467FB10768CDE911
:1045E000006CFF6BB84748B12269039933462A44EF
:1045F000201D05B0BDE8F040FDF70EBE6FF47A60F7
:1046000005B0F0BDF0B590F8207085B0DDE90A6C1A
:104610000446039115467FB10768CDE9006C3F6CF5
:10462000B84748B12269039933462A44201D05B092
:10463000BDE8F040FDF708BE6FF47A6005B0F0BD4C
:10464000F7B590F82010DDE908670446154671B10A
:104650000168CDE90067496C884740B1216932465D
:104660002944201D03B0BDE8F040FDF76DBE6FF496
:104670007A6003B0F0BD08B590F8203023B1043063
:10468000FDF78EFD002108BD1846FBE708B590F840
:1046900020301BB10430FDF78BFD08BD4FF0FF301B
:1046A000FBE72DE9F0471E4603689B6A1546DDE9E6
:1046B000087A0446984702460B462846314608F0D9
:1046C0004BF8134302D00020BDE8F0872368204652
:1046D0009B6A984702460B463846514608F03CF81C
:1046E0001343F0D1236815EB07089B6B204646EB7C
:1046F0000A099847494508BF40452CBF01200020C2
:10470000E2E708B590F820302BB101690430FDF7DD
:1047100049FD002108BD1846FBE708B590F8203098
:1047200033B1016904301144FDF73CFD002108BD9F
:104730001846FBE72DE9F0471E4603685B6A1546FD
:10474000DDE9087A0446984702460B46284631467A
:1047500008F002F8134302D00020BDE8F087236878
:1047600020465B6A984702460B463846514607F09A
:10477000F3FF1343F0D1236815EB07089B6B20462A
:1047800046EB0A099847494508BF40452CBF012020
:104790000020E2E790F820302DE9F347044603B902
:1047A000436204F1240959E8001F013149E800156A
:1047B000002DF8D101290BD104F1040840460191E4
:1047C000FDF7F8FC0199054630B14846FEF7C3FEF7
:1047D000284602B0BDE8F087D4E90420A36901911E
:1047E0009E18E36943EB00074046FDF7DFFC824675
:1047F0004046FDF7D9FC00235044BB4208BFB042FD
:10480000019905D24846FEF7A6FE6FF47A65DFE708
:10481000D4E9046740460191FDF7C6FC00239F429E
:1048200008BF86420199EDD3D4E90423134304D190
:104830004046FDF7B9FCC4E90405D4E90623134357
:1048400012D14046FDF7B2FC06464046FDF7ACFCEF
:104850008219D4E904104FF0000343F10003511A08
:1048600063EB0000C4E90610012384F82030AFE7B1
:1048700090F8203010B5044613B94362002010BDF3
:1048800001212430FEF767FE0028F7D184F82000CC
:10489000201DBDE81040FDF7A7BC000010B5034B7C
:1048A00003600446FFF7E4FF204610BD38D4000043
:1048B00010B50446FFF7F2FF20462821FFF7A6FBBC
:1048C000204610BD13B50C4C04600024C0E904144C
:1048D0000131C0E90144C0E9062480F82040446267
:1048E00000D032B900230549054800941A46FFF765
:1048F00003F802B010BD00BF38D40000BDD30000E3
:104900000101FF80042000217047D0F8D800002169
:10491000704700000048704784D40000D0E92201AD
:104920007047FF2070470000F0B587B014460E9B1B
:10493000059300220823071DCDE90223CDE90022BB
:104940000646022311463846FDF7B8FD054638B144
:104950000220144A1449FEF735FB284607B0F0BD83
:1049600005AB01930C9B00934FF0FF3223465A2175
:104970003846FDF723FECDE90255CDE900552A461C
:10498000294696F8723104463846FDF797FD0546EC
:104990000028DDD124B1054A03490220FEF712FBAD
:1049A0002046DBE78AD4000084D40000A8D40000AD
:1049B0002DE9F0470168096B17469846DDE9089A2A
:1049C0000646884702460B463846414607F0C4FE75
:1049D000134302D00020BDE8F087336817EB0904C9
:1049E00048EB0A0514F1FF32196B304645F1FF33ED
:1049F000884702460B462046294607F0ADFE134382
:104A0000E8D1336830469B6B9847A94208BFA04263
:104A10002CBF01200020DEE738B504461946D4F843
:104A20009030013310461FD104F1800201F0E2FA08
:104A3000431CD4F8D85009D02044012290F8CC105F
:104A40000023114205D0503354F823502846E9176B
:104A500038BD01335200042B52B2F2D1044A054949
:104A60000220FEF7AFFAF1E74FF480500021EFE7A4
:104A7000C6D4000084D40000F0B5D0E90114056864
:104A8000DDF814C04FEA640E05EB6400DDE907674A
:104A9000E40744BF55F80E406158CDF814C0CDE985
:104AA0000767BDE8F040084730B5039D00241C703F
:104AB0002C708C7814F0200F14D04A7AC265012231
:104AC0001A700B7A03F01F0380F875310B7A5B11B3
:104AD0009B0080F87331022380F8713180F87631C1
:104AE000002030BD102A0EDD0A7CD2060BD5CA7E0E
:104AF000C26501221A702A708B7E03F01F0380F8B2
:104B000075318B7EE3E762060ED5CA7AC265012253
:104B10001A708B7A03F01F0380F875318B7A5B1162
:104B200080F873310223D9E70B7CDD070DD5CB7DEF
:104B3000C3658B7D03F01F0380F875318B7D5B119E
:104B40005B0080F873310123C6E7E20608D5CB7B12
:104B5000C3658B7B03F01F0380F875318B7BEEE719
:104B6000E3070CD54B7BC3650B7B03F01F0380F879
:104B700075310B7B5B1180F873310123AEE70323A2
:104B8000C365ADE72DE9F04385B00646DDF8388012
:104B9000DDF848900D46174600F0B8F8044640B1DD
:104BA0000E4A0F490220FEF70DFA204605B0BDE877
:104BB000F083109BCDF80890CDE900833A460C9B1A
:104BC0002946301DFDF758FD04460028EDD0054A62
:104BD00003492B460220FEF7F5F9E6E7EED4000084
:104BE00084D4000041D500002DE9F0478AB00023AD
:104BF000DFF874A08DF82730054642F210740126C4
:104C000000274FF000084FF000090120FFF778FC63
:104C10000DF12703049300230093CDE90667CDE946
:104C200002894FF0FF324FF0FF3305212846FFF78E
:104C3000A9FF20B10A4952460220FEF7C3F99DF8A8
:104C40002730DA0708D5013CDFD10220054A0449A4
:104C5000FEF7B8F9204600E001200AB0BDE8F08771
:104C600084D400007CD500005DD50000F0B58BB089
:104C70000023002600278DF8273004930093CDE908
:104C80000667CDE902674FF0FF324FF0FF33062190
:104C90000446FFF777FF054640B1174A174902203F
:104CA000FEF790F94FF0FF300BB0F0BD2046FFF754
:104CB0009BFF08B9124AF1E701220023CDE9062340
:104CC0000DF127030493CDE9026700954FF0FF3201
:104CD0004FF0FF3305212046FFF754FF08B1094A82
:104CE000DCE79DF827309A07DED4074A0349022003
:104CF000FEF768F9D6E700BFA6D5000084D400000F
:104D0000C2D50000E1D5000002D60000F0B5046F66
:104D1000013487B005461BD0120E8DF81720FFF71F
:104D2000A5FF68B90123CDE901000093296F0DF1BA
:104D300017034FF0FF32281DFDF79EFC07B0F0BDB2
:104D40000D4A0E490220FEF73DF94FF0FF30F5E71E
:104D500090F8721103290DD012F17F4643F1FF370D
:104D60004FF0FF336FF080729F4208BF964201D22E
:104D7000034AE6E70020E1E739D6000084D40000CA
:104D80004DD600002DE9F04786B09146DDF838A0F9
:104D9000109B059352460F9B05468846FFF7B6FFCA
:104DA000044628B1244A25490220FEF70BF93AE0CF
:104DB00095F8753195F87121039395F87631029342
:104DC00095F87331CDE900232F1D95F8723195F8D0
:104DD00070113846FDF772FB0446064608B1184AC2
:104DE000E1E795F87301B0FA80F0400905AB424263
:104DF000CDE90093414653463846FDF7DFFBCDE948
:104E00000266CDE90066044695F8723132463146B5
:104E10003846FDF753FB054648B1094A07490220C9
:104E2000FEF7D0F82C46204606B0BDE8F087002CEF
:104E3000F9D0044AB7E700BF94D6000084D400003C
:104E40008AD40000DCD6000030B585B0DDE9084525
:104E5000CDE90023CDE902450A46C16DFFF792FF77
:104E600030B10220034A0449FEF7ACF86FF47A60CF
:104E700005B030BDEDD6000084D40000F0B585B09B
:104E800016460A9F0B9B03913A460546FFF73EFFE5
:104E90000399044638B10B4A0B490220FEF792F8F9
:104EA000204605B0F0BD0C9B4FF0FF32CDE900630A
:104EB000281D3B46FDF7B1FB04460028F0D0034A0D
:104EC000EAE700BF01D7000084D400004AD7000001
:104ED00070B586B0054605911646FFF717FF059990
:104EE000044638B10A4A0B490220FEF76BF8204607
:104EF00006B070BDCDE90100009003463246281D82
:104F0000FDF7BAFB04460028F1D0034AEBE700BFE7
:104F10005CD7000084D40000A5D700002DE9F04F35
:104F200089B007468946164698460DF1180BDDE90B
:104F30001234234358D0D7F868A1002552462B4697
:104F40003046414607F008FC129951180491139914
:104F50004B410593DDE90401A94208BF504534BF28
:104F6000DDF848A0AAEB020A544600253846CDE9F0
:104F70000645FFF77BFE40B102201C4A1C49FEF7A4
:104F800021F81C4809B0BDE8F08F8DE840094A4679
:104F900002213846FFF772FF28B9DDE906239D425A
:104FA00008BF924507D00220134A1149FEF70AF8BC
:104FB0006FF47A60E6E7129B16EB0A0648EB0508E9
:104FC000B3EB0A031293139B384663EB0503D144FA
:104FD0001393FFF709FE0028A9D10220074A0449CC
:104FE000FDF7F0FF0648CDE70020CBE7B7D700007C
:104FF00084D400005CF0FFFF4FD70000CAD7000048
:105000005DF0FFFF2DE9F04F14468BB0064600F12E
:10501000800219462046DDE914AB1D4600F0EAFF88
:10502000331814EB0A0893F8CC300793D6E92223FF
:1050300045EB0B094B4508BF4245074608D2574A86
:1050400057490220FDF7BEFF56480BB0BDE8F08F70
:1050500033682246196B30462B46884702460B467A
:105060002046294607F078FB134301D04E4AE7E774
:10507000336818F1FF32196B304649F1FF33884726
:1050800002460B464046494607F066FB1343EDD106
:10509000002305935AEA0B037ED0D6F89030049390
:1050A000013341D106F19803CDE9027352465B46C4
:1050B000CDE90045079800F0BBFF06EB80030590A3
:1050C000D3F83021D3F8403104920693069B4FF079
:1050D00000091A46984620464B46294607F03CFBF5
:1050E00013430BD114EB0A03089345EB0B0309930D
:1050F000DDE908234B4508BF42450AD2059B0393CF
:10510000069B2A4A26490293CDE900450220FDF775
:1051100059FF3046FFF7AAFD48B10220244A204932
:10512000FDF750FF234890E74FF48053CDE7CDE9DA
:1051300000AB049922462B463046FFF7C9FE38B132
:1051400002201D4A1649FDF73DFF6FF47A607CE7A7
:1051500014EB080445EB0905BAEB080A6BEB090BE5
:105160005AEA0B030CD006EBC703D3E93823AB4252
:1051700008BFA2423FBF0137F31993F8CC30079321
:105180003046FFF731FD002884D102200B4A044944
:10519000FDF718FF0A4858E7002056E7EFD7000050
:1051A00084D400005BF0FFFF0FD800003AD8000065
:1051B0007ED800005CF0FFFFA3D80000BED800003E
:1051C0005DF0FFFF30B591F8393091F838201B01C0
:1051D00003F0100343EA1213082B8BB004466ED081
:1051E00021DC022B19DCD3B1002300240025049319
:1051F0000093CDE90645CDE902454FF0FF324FF06F
:10520000FF333821FFF7BEFC20B1464A4649022051
:10521000FDF7D8FE00200BB030BD042B3BD0434A35
:1052200041490420F4E7102BF9D101220023CDE9F4
:10523000062300220023CDE9022309AD00230093B9
:1052400004954FF0FF324FF0FF336521FFF79AFCD2
:1052500020B1374A34490220FDF7B4FE9DF82430CE
:10526000049503F07F0301228DF824300023CDE95B
:10527000062300220023CDE90223002300934FF0F0
:10528000FF324FF0FF3361212046FFF77BFC0028FF
:10529000C0D0284ABAE700230024002504930093D5
:1052A000CDE90645CDE902454FF0FF324FF0FF331F
:1052B0003521FFF767FC0028ACD01F4AA6E7012282
:1052C0000023CDE9062300220023CDE9022309AD06
:1052D00000230093194A049500236521FFF752FC2F
:1052E00020B1174A10490220FDF76CFE9DF82430CA
:1052F000049543F0400301228DF824300023CDE9CA
:10530000062300220023CDE90223002300930B4A49
:10531000002371212046FFF735FC00283FF47AAFC7
:10532000084A73E7E9D8000084D4000014DA0000CA
:10533000B5D90000E5D9000019D9000003008000AC
:1053400049D9000085D90000D0B51E4B8AB01B7822
:105350008DF82430032600270023CDE9066709AA2B
:1053600000260027ADF8253004920093CDE90267AE
:105370004FF0FF324FF0FF339F210446FFF702FC4E
:1053800040B10220104A1149FDF71CFE4FF0FF30DA
:105390000AB0D0BD9DF82430BF2B06D0C22B07D059
:1053A0009D2BF5D101232366F2E784F87D00EFE71A
:1053B000012384F87C30032323661523A36684F835
:1053C0006C00E5E748E0000051DA000084D40000FA
:1053D000D0B591F83D3013F0080288B0044613D0E0
:1053E00000260027CDE90667CDE902670023049374
:1053F00000934FF0FF324FF0FF33F021FFF7C2FB75
:1054000040B31B4808B0D0BDDB061DD500260027E1
:1054100004920092CDE90667CDE902674FF0FF32B2
:105420004FF0FF336621FFF7ADFB0028E9D1049070
:105430000090CDE90667CDE902674FF0FF324FF0EB
:10544000FF3399212046D9E70A4A0B490220FDF78C
:10545000B9FDD6E72046FFF7C7FB30B90220074A5F
:105460000549FDF7AFFD0648CCE70020CAE700BFBD
:105470005EF0FFFF67DA000084D40000EEDA00007F
:105480005DF0FFFF2DE9F041012288B00023CDE956
:10549000062300260023002704910093CDE902672C
:1054A0000D464FF0FF324FF0FF3305218046FFF7E6
:1054B00069FB044640B1114A11490220FDF782FD03
:1054C000204608B0BDE8F081D8F86030013BF7D045
:1054D0000135CDE906300090CDE90267D8F86810B3
:1054E00004954FF0FF324FF0FF334046FFF74AFB81
:1054F00004460028E4D0034ADEE700BFE1D50000FF
:1055000084D400000DDB00002DE9F04F436E013321
:1055100089B005468B4628D1FFF7A8FB50B1344A25
:1055200034490220FDF74EFD4FF0FF34204609B00C
:10553000BDE8F08F00220023CDE906232B6E0490F6
:10554000CDE90230CDF800B04FF0FF324FF0FF331D
:1055500001212846FFF716FB04460028E6D0264A1C
:1055600024490220FDF72EFDE0E7D0F860A0BAF153
:10557000020F05D0214922484FF4BB62FDF7BCFF62
:10558000FFF774FB0028CAD14FF000084FF0000964
:10559000012600270490CDE90689CDE90267CDF800
:1055A00000B04FF0FF324FF0FF3301212846FFF7E4
:1055B000E9FA044618B1134A0E495046D2E7284684
:1055C000FFF754FB0028AAD10494CDE90689CDE960
:1055D0000267696ECDF800B04FF0FF324FF0FF3335
:1055E0002846FFF7CFFA044600289FD0064AE3E793
:1055F0002EDB000084D4000042DB000062DB0000F0
:10560000ACDB0000C7DB0000E8DB0000F7B53A4B7D
:105610001A788DF800208DF8042091F83A200023A4
:10562000C2F302120446ADF80130ADF80530052A88
:1056300045D8DFE802F04903393C030301234367FF
:10564000A367636F591C08D0A16F4A1C05D002AA3A
:10565000134401228A4003F8082C01A92046FFF7D1
:1056600011FF9DF806309DF80220BDF800109DF84E
:1056700000709DF801601343BDF804208DF80630DA
:105680000A43204601A9ADF80420FFF73DFF20465C
:10569000FFF7AAFAD0B9194A19490220FDF792FC7E
:1056A0004FF0FF3003B0F0BD43670623C8E7436700
:1056B000072383673E253F23C0E91953C1E7114AF9
:1056C0000F490420FDF77EFC0020EBE7002501A92F
:1056D0002046ADF804508DF80650FFF7D3FE9DF834
:1056E00004301F409DF805301E4057EA060301D1E3
:1056F000054AD1E72846D5E748E00000CAD70000B0
:1057000084D4000009DC000027DC000030B52C4BFD
:105710008BB01B788DF8243000230546ADF825307A
:10572000FFF762FA40B9274A27490220FDF74AFCF1
:105730004FF0FF300BB030BD95F87D4044B1012CE7
:1057400020D02846FFF750FA0028ECD00020F1E7DF
:105750002846FFF78BFA08B11C4AE5E70022002330
:10576000CDE90623CDE90223049000904FF0FF32EB
:105770004FF0FF3398212846FFF704FA0028E0D0C5
:10578000134AD1E709A92846FFF77CFE08B1114A60
:10579000CAE76B6F8BB9AB6F9C4044F00304E4B273
:1057A0009DF8243009A91C4028468DF82440FFF7B5
:1057B000ABFE0028C5D0084AB6E70324F0E700BFD7
:1057C00048E0000049DC000084D4000039D6000025
:1057D0007CDC0000A2DC0000D8DC000030B5036EE9
:1057E000032B87B0054605D0264927484FF495621C
:1057F000FDF782FE254B00221B788DF81430CDE991
:105800000222CDE90022022311460430ADF8152012
:10581000FCF754FE48B11E4A1E490220FDF7D2FB98
:105820004FF0FF34204607B030BD05A92846FFF7EA
:1058300029FE08B1184AEFE79DF81630284643F0D4
:1058400002038DF81630FFF711FA044608B1134A27
:10585000E2E705A92846FFF757FE08B1104ADBE743
:105860002846FFF7C1F908B90E4AD5E705A9284629
:10587000ADF814408DF81640FFF704FE0028D1D093
:10588000094AC9E762DB000010DD000048E00000C3
:105890008AD4000084D400002BDD00002EDB000041
:1058A0004ADD0000CAD700007CDD000084B02DE98D
:1058B000F0419AB0054621A880E80E00259F249962
:1058C0003A687C68002329B9364937484FF4FD729D
:1058D000FDF712FE06AECDE902430096884760B19F
:1058E000324A33490220FDF76DFB4FF0FF3420466A
:1058F0001AB0BDE8F04104B0704705F18008414698
:10590000304600F0F7FB002801DA2A4AE9E7414671
:10591000304600F0D9FB002801DA274AE1E7796830
:10592000304600F021FB3146C5F868012846FFF7F4
:105930004FFD044608B1214AD3E78DF816008DF8D3
:1059400017004146304600F01BFB002801DA1C4AD4
:10595000C7E70DF1170300937A680DF1160331467E
:105960002846FFF7A1F89DF816309BB195F87C30DA
:1059700013B12846FFF732FF31462846FFF746FEAF
:1059800008B1104AADE79DF817301BB131462846E3
:10599000FFF718FC2846FFF727F90028A7D10A4A85
:1059A0009FE700BF9DDD0000CCDD0000D8DD0000DA
:1059B00084D40000FCDD00001BDE00003BDE0000A4
:1059C0006CDE0000A3DE0000D4DE000010B586B05F
:1059D0000446684680E80C0006A800E90C00039124
:1059E00010E90700034BE36084E80700204606B097
:1059F00010BD00BF794A00002DE9F047456D92B017
:105A00000446B5B16B1C0CD190F95830544A554935
:105A10000220FDF7D7FAA5F6A575284612B0BDE815
:105A2000F087514A4F49514D0A230220FDF7CAFA27
:105A3000F3E7CDE90255CDE90055061D90F8723126
:105A40002A4629463046FCF739FD38B1484A4549CF
:105A50000220FDF7B7FA6FF47A65DEE794F87C313F
:105A60000BB9C4F87851D4F878710137012FC4F814
:105A70007871D2D10023D4F86C1184F8733184F892
:105A800075313046FCF74CFD054608B1394ADEE772
:105A90002046FFF7A9F830B9374A3249374D02207E
:105AA000FDF790FAB9E72046FFF74EFC002801DA2F
:105AB000334ACCE7DFF8E0A0CDE90EA50DF11808D8
:105AC0000EAE96E80C002146C4E92055C4E92655DF
:105AD000404604F18009FFF779FFCDF8009098E87F
