:020000040002F8
:100000003DB8F3960000000000100000B0CC0400E2
:1000100000000000000100008F046E60000000007E
:10002000FFFFFFFFFFFFFFFFFFFFFFFFFFFFFFFFE0
:10003000FFFFFFFFFFFFFFFFFFFFFFFFFFFFFFFFD0
:10004000FFFFFFFFFFFFFFFFFFFFFFFFFFFFFFFFC0
:10005000FFFFFFFFFFFFFFFFFFFFFFFFFFFFFFFFB0
:1010000000000420E9B8050021B905006181050050
:1010100025B905006D810500738105000000000001
:10102000000000000000000000000000A9270200EE
:101030002DB90500000000004128020051280200DF
:1010400019E10500A145050033B9050033B90500D4
:1010500033B9050033B9050033B9050033B90500CC
:1010600033B9050033B9050033B9050033B90500BC
:1010700033B90500E5E5050033B905003552050033
:1010800033B9050033B9050033B9050033B905009C
:1010900033B9050033B9050033B9050033B905008C
:1010A00033B9050033B9050033B9050033B905007C
:1010B00033B9050033B9050000000000000000004E
:1010C00033B9050033B9050033B9050033B905005C
:1010D00033B9050033B9050033B9050033B905004C
:1010E00033B9050033B9050033B90500000000002D
:1010F0000000000033B905000000000033B905000E
:1011000010B5054C237833B9044B13B10448AFF341
:1011100000800123237010BD300F0020000000006C
:1011200074CF060008B5034B1BB103490348AFF366
:10113000008008BD00000000340F002074CF0600BE
:10114000154B002B08BF134B9D46A3F5803A002199
:101150008B460F461348144A121A3FF03FFB0F4BC1
:10116000002B00D098470E4B002B00D09847002052
:10117000002104000D000D48002802D00C4837F073
:1011800035FD3EF031FE2000290003F073F937F001
:101190002AFD00BF0000080000000420000000003D
:1011A000D1430200300F0020300A0120ED8B0500F2
:1011B0000000000038B5C568064B0360044635B131
:1011C000284600F045F94021284637F027FF204601
:1011D00038BD00BF186A060010B50446FFF7EAFFE5
:1011E0002046202137F01AFF204610BDF0B587B009
:1011F00006A901E90C00D0E90423059E1249044622
:10120000F717CDE902230820104ACDE9006736F030
:1012100005FE606804990368CDE900679D69D4E91B
:101220000423A84740B10346094A0749022036F083
:10123000F5FD092007B0F0BDD4E904329B1947EB56
:101240000202C4E90432F5E7986806006468060003
:101250009D68060010B5044659B14B4202200A4968
:101260000A4A36F0DBFDA0690921BDE8104001F013
:10127000B0B90820064A044936F0D0FDA069BDE89F
:10128000104001F08FB900BF98680600C3680600DF
:10129000E96806002DE9F0430D4685618FB00446EC
:1012A000107808A981E80C0003286AD8DFE800F06C
:1012B0005D025460344A3549082036F0AFFD2846B7
:1012C00001F0ABF9284601F057F9E56835B1284639
:1012D00000F0BEF84021284637F0A0FE402037F04D
:1012E00073FED4E90112054600F0A1F86068E560DC
:1012F00003689B6B9847264ACDE9000123490820E3
:1013000036F08CFD6068E76803689B6B9847214B5B
:101310000B930646002338680C931F4B0D9303680C
:101320000A94DB6A0D4698470EAB8046894613E95E
:101330000F0004AC84E80F00CDE90289CDE9006517
:1013400000220023384600F0AFF870B1134B144A66
:10135000144856213EF052F8284601F062F9124A2C
:101360000A49082036F05AFD00200FB0BDE8F0838E
:101370000E4A0649082036F051FD284601F051F981
:10138000F2E79120F1E700BF1469060098680600B3
:101390002969060055120200B113020045690600D2
:1013A0004A690600C9690600EB690600026A060080
:1013B00030B4D0E901320468551004EB6200D20762
:1013C00048BF625930BC48BFD358184730B5064CA7
:1013D0008260C0E90041002200240025C0E90445E4
:1013E000C260826130BD00BF186A0600704700000D
:1013F000C36810B52BB9044904484FF4FD7236F0A8
:10140000B1FFBDE810401847286A0600576A060079
:1014100010B4D0E901320168541001EB6200D20728
:1014200048BF0A595DF8044B48BFD358184730B538
:10143000C0E90012002400220025C0E90845C0E9E7
:101440000A45C0E90C45826082610277826330BD43
:1014500010B50446D0E9010135F0B9FD204610BDB4
:1014600084B070B505AD85E80E001021064635F054
:101470005AFE044678B195E80F0084E80F00204634
:10148000074936F041F822463046BDE8704005492C
:1014900004B035F008BFBDE8704004B0704700BF2D
:1014A000ED130200F11302002DE9F04F87B0DDE9E2
:1014B0001067DDE91289044693469A4642464B4638
:1014C0003046394645F036F8134303D0012007B0C3
:1014D000BDE8F08F20680368DB6A984702460B4638
:1014E0004046494645F026F81343EFD114AB0FCBE5
:1014F00016EB0B0647EB0A070025C4E90A6704F15F
:101500000C06C4E908BAC4E90C892577A56386E806
:101510000F00074B0294CDE90335064B009302AB55
:101520000ECB6068FFF79CFFA0602846CFE700BFA6
:101530005915020011140200C36810B52BB90449F3
:1015400004484FF4FD7236F00DFFBDE81040184717
:10155000286A0600576A0600F0B50446D4E90C2351
:10156000006887B00168CDE90023D4E90823C96980
:1015700088470146A06348B1A3691BB104F10C0080
:10158000FFF7DAFF0123237707B0F0BDD4E9083570
:10159000D4E90C209E18D4E90A2345EB00079F42AA
:1015A00008BF9642C4E90867E6D2064B0294CDE92B
:1015B0000331054B009302AB0ECB6068FFF750FF81
:1015C000A060E1E75915020011140200704770474E
:1015D0007047704770477047704770477047704753
:1015E0002DE9F74344689DF82870884691461D46CA
:1015F00054B1206803688DF800701E6B4A462B4674
:101600004146B0476468F3E703B0BDE8F0832DE9D5
:10161000F04144680E461746984644B12068056874
:101620004346AD6B3A463146A8476468F5E7BDE8E6
:10163000F08170B544680D4616463CB120680368D9
:1016400032461B68294698476468F6E770BD7047C4
:101650000368184703680BB1084618477047000035
:1016600038B5102105680B4835F05DFD044680B1A2
:10167000094B436000238360084B0560C360084941
:1016800035F042FF224607490248BDE8384035F0B0
:101690000ABE38BD4C0F002063C7040011190200B8
:1016A000ED130200F113020073B5094E14461D46F6
:1016B000084A0B460820314636F0B0FB064A009532
:1016C00023463146082036F0A9FB02B070BD00BFAA
:1016D0008B6A0600636A0600906A06000B783BB9C5
:1016E0004B68C0F85833034A0349082036F096BBCC
:1016F000704700BFA96A06008B6A060070B5094DE5
:101700009DF81060084A1C4608200B46294636F012
:1017100085FB0496E3B22946044ABDE870400820E0
:1017200036F07CBB8B6A0600DC6A0600016B0600A3
:1017300010B50C46104A63681049082036F06EFB5D
:1017400022890E4940F2E243534308204FF47A7253
:10175000B3FBF2F30A4A36F061FB6389094A074991
:10176000082036F05BFBA389074A0449BDE8104016
:10177000082036F053BB00BF186B06008B6A0600CA
:10178000536B06006F6B0600816B060008B50820DE
:10179000044A054936F042FBBDE80840034835F0ED
:1017A00014BC00BF996B06008B6A06004C0F00202A
:1017B00038B5064B03600446406828B145680821E7
:1017C00037F02CFC2846F8E7204638BDF46D0600BB
:1017D00038B5064B03600446406828B145680821C7
:1017E00037F01CFC2846F8E7204638BD3C6E060062
:1017F00010B5034B03600446FFF7DCFC204610BD28
:10180000646E060010B50446FFF7F2FF2046202163
:1018100037F004FC204610BD10B50446094A0A49B9
:10182000082036F0FBFA60682AF08BFF00231A4686
:1018300019462BF037F820B1BDE81040034900F0FD
:1018400089BB10BDB46B06008B6A0600E06B060016
:101850007FB50C46054623681B491C4A082036F014
:10186000DDFAA388E688184940F2E2424FF47A7024
:1018700053437243B3FBF0F3B2FBF0F20820009243
:10188000134A36F0CBFA2389124A0F49082036F062
:10189000C5FA6389104A0C49082036F0BFFA686817
:1018A0002AF04FFF0023ADF80C30ADF80830638903
:1018B000ADF804302389ADF80030A288E3882168B0
:1018C0002AF0F3FF04B070BD8B6A0600056C0600B9
:1018D000416C06006F6B0600816B060033B405682F
:1018E0000C4695B103466A4653F8040F596803C283
:1018F0004A1011F0010F009B1CBFAA58D35805EBEA
:101900006100214602B030BC184702B030BC7047BD
:1019100010B4D0E901320168541001EB6200D20723
:1019200048BF0A595DF8044B48BFD358184738B52B
:1019300044680D4634B12068036829461B699847FE
:101940006468F7E738BD38B544680D4634B120689F
:1019500003682946DB6898476468F7E738BD38B5FF
:1019600044680D4634B12068036829469B6898474F
:101970006468F7E738BD73B5044602A800E90600BD
:10198000009E1D4634B12068036829469B5998473C
:101990006468F7E702B070BD82B00B4601220421F3
:1019A000CDE9001202AA12E90600406802B0FFF772
:1019B000E2BF82B00B4601221421CDE9001202AA37
:1019C00012E90600406802B0FFF7D5BF82B00B46AF
:1019D00001221821CDE9001202AA12E9060040688E
:1019E00002B0FFF7C8BF82B00B4601221C21CDE92F
:1019F000001202AA12E90600406802B0FFF7BBBF5E
:101A000010B544682CB120680368DB6B98476468A4
:101A1000F8E710BD38B544680D4634B12068036856
:101A20002946DB6A98476468F7E738BD38B54468EB
:101A30000D4634B12068036829469B6A984764685C
:101A4000F7E738BD38B544680D4634B120680368FF
:101A500029465B6A98476468F7E738BD38B544683B
:101A60000D4634B12068036829461B6A98476468AC
:101A7000F7E738BD38B544680D4634B120680368CF
:101A80002946DB6998476468F7E738BD38B544688C
:101A90000D4634B12068036829469B6998476468FD
:101AA000F7E738BD38B544680D4634B1206803689F
:101AB00029465B6998476468F7E738BD38B54468DC
:101AC0000D4634B12068036829461B69984764684D
:101AD000F7E738BD38B544680D4634B1206803686F
:101AE0002946DB6898476468F7E738BD38B544682D
:101AF0000D4634B12068036829469B68984764689E
:101B0000F7E738BD38B544680D4634B1206803683E
:101B100029465B6898476468F7E738BD38B544687C
:101B20000D4634B12068036829461B6898476468ED
:101B3000F7E738BD2DE9F74344689DF828708846DB
:101B400091461D4654B1206803688DF800705E6BA5
:101B50004A462B464146B0476468F3E703B0BDE808
:101B6000F08300002DE9F041A0228AB04FF4006319
:101B7000CDE904237F238DF82330BDF8243023F4EE
:101B8000FF4300F5537623F07F03002443F41C53F6
:101B9000012705464FF006013046ADF824308DF898
:101BA0000C408DF818408DF81A40CDF81D40ADF866
:101BB00021408DF819708DF81B708DF81C702FF076
:101BC0006CF9214630462FF057F91C493A46304609
:101BD0002FF077F968682AF0B4FD214603AA2AF0AD
:101BE00052FE044628B1164900F0B4F90AB0BDE827
:101BF000F08168682AF0A5FD0DF10408074631461A
:101C000040462FF093F9214698E80C0038462AF018
:101C10003DFE044608B10B49E6E768682AF091FDED
:101C20002346224621462AF03DFE08B10649DBE75D
:101C3000064A0749082036F0F1F8D7E7DD6E0600BE
:101C4000716C06009E6C0600E06B0600C86C060016
:101C50008B6A060070B50D7904462DB128461849E7
:101C6000BDE8704000F076B9C6681649082037F024
:101C7000D3F920B1C0E900457368D3B970606068DA
:101C80002AF05FFDE1682AF0FBFD60682AF05DFD47
:101C900004F1380521692AF017FE284600F0CEFB32
:101CA000284604F1180100F051FC2046FFF75AFFC6
:101CB00070BD1A465B68002BFBD15060DFE700BFA8
:101CC000EB6C060088CC0600F0B5ADF5637D35F011
:101CD0002FFF3DF0ADF90346002877D13E4A3F493A
:101CE000082036F09BF83DF05DFB03683C4F9B6895
:101CF0000AAC98472AF088FD00263A4BCDE90B66DE
:101D000021462360384BE360054626612AF03DFDFD
:101D1000364BA760C4E90035354BE360354B236192
:101D20003DF040FB3A46014610A8FFF74FFB324B0F
:101D3000A361324B0393324B0293324B01932369DD
:101D40000093D4E90223616818A800F08FFAD5AB9C
:101D500005931F2305AD069395E80600DDA82EF038
:101D6000E9FF294B60682C60C5E90136274BC4F8B0
:101D70005863C5E9033629462AF0D0FCA06835F03F
:101D800020F9234A1549082036F048F8214A13491A
:101D9000082036F043F860682AF0D3FCD4F85813D2
:101DA0004FF015022AF084FD4FF4FA71384635F0F1
:101DB00006F9BFF34F8F1849184BCA6802F4E06266
:101DC0001343CB60BFF34F8F00BFFDE7144A0349B5
:101DD000022036F023F886E7056D06008B6A0600C0
:101DE0004C0F002061160200551602007C6E0600A2
:101DF000A80F0020B00F0020646E06002F6D0600B3
:101E0000C46E06003B6D0600551C0200DD18020082
:101E1000416D0600726D060000ED00E00400FA0559
:101E2000146D060010B50F4C00224FF402712046CD
:101E300035F0B0F80C4A0D49204636F0D2FE0C4879
:101E40000C4B094A0C4903600024446036F0C9FE7B
:101E50000A480B4B4460044A0A490360BDE810403D
:101E600036F0BFBE4C0F002000020020B36F05000B
:101E7000A80F0020F46D0600B1170200B00F00207B
:101E80003C6E0600D117020010B5064B044640F820
:101E9000383B00F0BFF904F11800FFF7A9FC204619
:101EA00010BD00BF7C6E060010B50446FFF7ECFFC6
:101EB00020464FF4587137F0B1F8204610BD0000AD
:101EC00037B56C4684E80C001378032B0D462BD1F4
:101ED00000203DF05DF8034658B1174A174902202B
:101EE00035F09CFF2846072100F073FB0E2003B05D
:101EF00030BD134A1149082035F090FF11480421E4
:101F000035F011F9044668B10F4B0360FA2135F042
:101F1000F8FA0E49204635F0F7FA0D4909482246ED
:101F200035F0C1F90020E2E794E80C0003B0BDE809
:101F30003040FFF7AFB900BF886D06008B6A06001E
:101F4000BA6D06004C0F00208D1702004F160200DC
:101F5000511602000B460D2827D8DFE800F0070CC9
:101F60000E10121416181A1C1E202224104A114991
:101F7000022035F053BF104AF9E7104AF7E7104A3C
:101F8000F5E7104AF3E7104AF1E7104AEFE7104A85
:101F9000EDE7104AEBE7104AE9E7104AE7E7104A95
:101FA000E5E7104AE3E7104AE1E7104ADFE700BF40
:101FB000E66E0600036F0600076F06006E6F0600F0
:101FC000DE6F06003A70060081700600A7700600FA
:101FD000D2700600F67006001C71060044710600FF
:101FE000667106008F710600CC710600E471060070
:101FF00003680BB108461847704703680BB10846E1
:10200000184770470346002210B503F8012B00F172
:10201000110403F8012B9C42FBD1418210BD00004A
:10202000F0B50D7805709DF818404D8A4582461C24
:102030004D1C113155F8047B46F8047B8D42F9D1D3
:102040004261BDF8142002839DF824208277079A0C
:102050004262089A80F82820154AC263154A026530
:1020600090F858204383002363F3010214F04C0FCF
:10207000C0E90D33C0E912338383C3620364036391
:102080004365436480F8582018BF0823C4F3400216
:102090001343C27F80F8204022F03F0213436206C0
:1020A000C37741BF0122DBB262F30513C377F0BDF2
:1020B000FB1F0200F11F0200704770477047704716
:1020C0007047704770477047704770477047704758
:1020D0000023C0F8F0327047A0F10400FFF7F8BF0A
:1020E00033B405680C4695B103466A4653F8040FAD
:1020F000596803C24A1011F0010F009B1CBFAA5877
:10210000D35805EB6100214602B030BC184702B03D
:1021100030BC7047A0F13003DBB2092B05D9A0F128
:102120006103052B03D85738C3B218467047A0F196
:102130004103052B01D83738F6E70023F5E7000007
:102140002DE9F0430446012304F8013B024600F167
:10215000110689B02346002003F8010BB342FBD1DE
:10216000002501F1FF38508223312F46A94618F887
:10217000010F98B12D280DD0FFF7CCFFB9F1000F5A
:1021800036D008AB2B443843C7B203F8207C013566
:102190004FF00009884517D1102D17D0174B04AF09
:1021A00003F1100C186859683D4603C508336345B0
:1021B0002F46F7D10123137008AB13F8011D04F863
:1021C000011BA642F9D10AE0102DD0D101231370D2
:1021D00004AB13F8011D04F8011BA642F9D1917B51
:1021E000537B104643EA0123538209B0BDE8F083D4
:1021F0000001C7B24FF00109CCE700BFBB72060077
:1022000010B50446C06A10B1202136F007FF204601
:1022100010BD00000E4B03F108023C3310B504461C
:102220000260436000F52470FFF7EAFF04F50D70CB
:10223000FFF7E6FF04F5EC70FFF7E2FF04F5BE7070
:10224000FFF7DEFF04F59070FFF7DAFF204610BDC0
:102250008473060010B50446FFF7DCFF20464FF4F8
:102260003D7136F0DBFE204610BD00002DE9F04F39
:1022700004468FB06C482060C4E903233430189BB7
:10228000636104F11808C4E90101DDE91A76C52289
:10229000002140463EF0A2FA199A00230DF12501D3
:1022A000C4E93C2704F1DD0AC4F8DD30C4F8E130AC
:1022B00004F1E509C4F8E530C4F8E93004F1F805A3
:1022C0008DF8243010228B46013A01F8013BFBD1F6
:1022D000304616B13EF034FE80B29DF8243084F8CA
:1022E000F83042F60113A4F80A3104F1F9025B4612
:1022F0000DF1350153F804CB42F804CB8B42F9D1F0
:10230000D4F814314949A4F8100103F0484343F0CC
:102310008073C4E94536C3F307636FF3C303A4F8BE
:10232000120184F81731C4F81C51C4F80C6109A8D3
:102330000025FFF705FF4FF0010BC5230422CDE96F
:10234000003209A942460223CDE9035B029504F558
:102350009070FFF765FE4FF00808354909A8FFF7B0
:10236000EFFE5B465246CDE9008809A9CDE9035B43
:10237000029504F5BE70FFF753FE2E4909A8FFF73A
:10238000DFFE1223CDE900834A465B4609A9CDE969
:10239000035B029504F5EC70FFF742FE264909A89D
:1023A000FFF7CEFED4F8F020079210463EF0C8FDAD
:1023B000022183B2CDE90031079A0295CDE9035598
:1023C00009A904F50D70FFF72BFE04F524788DF8AC
:1023D000245010230DF12502013B02F8015BFBD1D3
:1023E00042F62623ADF83630DFB138463EF0A8FD80
:1023F00083B20122003E049204F58E7218BF0126BA
:1024000002920222CDE9003203963A4609A94046DB
:10241000FFF706FE00232046C4E9BB330FB0BDE83A
:10242000F08F3B46E5E700BF8C7306003A73060069
:10243000F0720600CB72060015730600F0B593B07B
:1024400000F59073009300F5BE73019300F5EC73F3
:102450000446029300F50D733649039300F5247387
:1024600005A80493FFF76CFED4F8F430002B9DF818
:1024700014308DF82830BDF82630ADF83A3014BF4E
:10248000052104210DF115030DF129020DF125009F
:1024900053F8045B42F8045B8342F9D1264A8DF875
:1024A0003C100023CDE90523ADF8443005AB03CB48
:1024B000224BC4F8C401C4F8C811C4F8CC31A068D8
:1024C000C4F8C041CDF840D02AF03FF90AA92AF05B
:1024D00002FA054630BB1A4926690820271D36F046
:1024E0009BFD20B1C0E9007573687BB97060144929
:1024F0006669082036F090FD28B1002343607368B8
:1025000004604BB97060284613B0F0BD1A465B6892
:10251000002BFBD15060EAE71A465B68002BFBD129
:102520005060F0E70346074A0749022035F076FC81
:10253000E9E700BF5F73060061260200E1200200A8
:1025400088CC0600F671060098680600C0F8EC1208
:1025500070471FB5044604AB806803E906002AF003
:10256000F4F800230093029ABDF80C30B4F8F4118B
:102570002AF0B4F904B010BD1FB590F8F1328DF80F
:102580000530012280F8F22201AB0222CDE90232AD
:1025900004AB8DF8042013E90600FFF7DAFF05B05D
:1025A0005DF804FB1FB590F8F1328DF8053001ABF2
:1025B000029300220223039380F8F22204AB032249
:1025C0008DF8042013E90600FFF7C3FF05B05DF89E
:1025D00004FB1FB50DF1070302930123039304AB22
:1025E0008DF8071013E90600FFF7B3FF05B05DF89B
:1025F00004FB1FB504238DF8043090F8F1328DF8F8
:10260000053001AB02930223039304AB13E90600E8
:10261000FFF79FFF05B05DF804FB012380F8F0325F
:102620007047002380F8F03270470000002A08B598
:10263000C0E9001205DA0749074840F2752235F073
:1026400091FE29B922B10349044840F27622F6E707
:1026500008BD00BF27720600527206005D720600B8
:102660002DE9F34190F8F0220C46C96805460B7835
:102670003AB99A1E012A06D8FC23237402B0BDE899
:10268000F081012BF8D095F8F3223AB1022B05D056
:10269000942323742846FFF7ACFFEFE7D5F8EC62EC
:1026A000002EEBD033682289D3F80C806F46384671
:1026B000FFF7BCFF97E80C0029463046C04720745E
:1026C000DCE70000F0B589B002AB83E8060090F8C3
:1026D000F03204467BB904AD0B23012206A928463B
:1026E0008DF81830FFF7A2FF95E806002046FFF7A7
:1026F00030FF09B0F0BD90F8F22212B1FFF73CFFB5
:10270000F7E7029990F8F1020B7883420CD0009021
:10271000174A1849042035F081FB012384F8F3326D
:102720002046FFF766FFE4E7D4F8EC5284F8F32282
:102730002DB994F8F132013384F8F132D9E7039AD4
:102740002B68002A9F6805DC0B490C4840F26F3269
:1027500035F008FE06AE013A01313046FFF766FF5C
:1027600096E80C0021462846B8470028E1D0C0E78B
:102770007772060098680600277206009C720600B1
:1027800037B5B0F83C318A889A4204460AD16D4682
:102790004A89C9682846FFF749FF95E806002046A0
:1027A000FFF790FF03B030BD1EF0040F0CBFEFF336
:1027B0000880EFF30980816911F8021C91BB01B513
:1027C00090E80F10E047BDE800508CE80300244B70
:1027D00093E80600914208BF704741B91EF0100F00
:1027E00010D12049086820F0010008600AE02CE9B7
:1027F000F00F1EF0100F08BF2CED108AC1F838C082
:1028000081F822E01A6092F82210906B61F0FF0EBE
:102810001EF0100F08BFB0EC108AB0E8F00F80F384
:1028200009887047104A13689942FAD801B552F8DE
:1028300021C00FC8E047BDE80050CCF80000704749
:1028400001B501F095F9BDE80140EFF3098CBEE751
:1028500001B501F055F9BDE80140EFF3098CB6E789
:102860001802002034EF00E0C074060008B50146ED
:1028700010B1132001F098FC002008BD08B5EFF35B
:1028800005832BB9EFF3108313B9EFF3118333B141
:102890006FF0050000F0CEF96FF0050008BDDFF81D
:1028A00008C000DFFAE700BF6D280200EFF31083D5
:1028B0002BB9EFF31180003818BF012070470120B9
:1028C0007047000038B50546A0B1846802686CB155
:1028D00014F0030302D1C1680F2926D86FF0080154
:1028E000002001F09FFE0024204638BDC368002B65
:1028F000F4D11546104BD3F8900078B100F00CFCE1
:102900000446A0B10123A3700023C4E90233F322DB
:10291000094B2270094A65605A66E5E7D3F88000E2
:102920000122102100F080FBEAE71546EBE76FF08B
:10293000040101F077FED7E704020020A929020074
:10294000930710B502F0010422D400F10C0384B106
:1029500053E8000F00EA01028A4203D0BFF32F8F31
:10296000002005E020EA010243E8002404B1EFE77B
:1029700010BD53E8000F084203D1BFF32F8F002092
:1029800005E020EA010243E8002404B1F1E7EFE7A3
:10299000C06801EA00031CB1994218BF0020E7E7B4
:1029A000002B08BF0020E3E7F8B58468054604B9AA
:1029B000F8BD94F82320616AA7682846FFF7C0FF96
:1029C000064638B1204601F036FA0022314620464C
:1029D00001F0D8FA3C46EAE7F8B50D4617461E4620
:1029E000044620B10378F32B01D1002907DA2046F1
:1029F0006FF0030101F016FE6FF00300F8BDFFF762
:102A00009FFF0028FAD186B13146432001F0CCFB6C
:102A100040B1074B5E692046314601F0F1F975621D
:102A200086F823706FF00100E8E76FF00200E5E739
:102A30000402002070B5054610B10378F32B07D0CF
:102A400028466FF0030101F0EDFD6FF0030070BD4B
:102A5000836863B1284601F0E5F900226FF00201B6
:102A600001F090FAA8680028F4D101F05FFAAB7881
:102A7000002613F001032E700FD0094BD3F89040BD
:102A8000294624B1204600F061FB3046DFE7D3F849
:102A9000800000F0FDFA2046D9E71846D7E700BFCE
:102AA000040200202DE9F041064620B10378F32B03
:102AB00001D1002909DA6FF00301304601F0B2FDBF
:102AC0006FF003052846BDE8F08100F10C0353E8E0
:102AD000002F42EA010543E8005000B1F7E7B4686F
:102AE0001CB9204601F022FAECE794F82320616A31
:102AF000D4F808803046FFF723FF074678B194F8F2
:102B000023309B0756BF656A054620EA0505204627
:102B100001F091F900223946204601F033FA44468B
:102B2000DEE7000008B50246EFF3058333B100206D
:102B30006FF0050101F076FD002008BDFFF7B6FE3D
:102B40000028F4D1DFF808C0104600DFF5E700BF29
:102B5000C528020038B50246EFF305834BB192B9A0
:102B60006FF00301104601F05DFD6FF00304204695
:102B700038BDFFF79BFE0028F1D1DFF830C01046CA
:102B800000DF0446F3E71378F32BE9D10029E7DBF4
:102B900002F10C0353E8000F40EA010443E800454A
:102BA00005B1F7E7104601F02BF8E0E7A52A02008F
:102BB00038B504461D46EFF3058343B18CB9204672
:102BC0006FF0030101F02EFD6FF0030038BDFFF739
:102BD0006DFE0028F2D1DFF828C020462B4600DF2A
:102BE000F4E72378F32BEAD1002DE8D10029E6DBC6
:102BF0002046FFF7A5FE002808BF6FF00200E5E7BA
:102C0000D929020008B50246EFF305833BB110460F
:102C10006FF0050101F006FD6FF0050008BDFFF73C
:102C200045FE0028F3D1DFF808C0104600DFF5E7C5
:102C3000352A02007047EFF310832BB9EFF31180B0
:102C4000003818BF0120704701207047014BD86839
:102C5000704700BF0402002070B5484C217A01295A
:102C600000F08A8031B14FF0FF3001F0CFFC4FF01F
:102C7000FF3070BD424D9C2204F108003DF0AEFDD6
:102C8000D5E90B61EB68E3652B8AA4F85430304634
:102C9000AB68236400F0B0F908B1C4F88060D5E9EE
:102CA0000561304600F0A8F908B9D4F8806066677D
:102CB000D5E90761304600F09FF908B9D4F8806083
:102CC000A667D5E90961304600F096F908B9D4F84D
:102CD0008060E6676E6B3EB1D6E90223316830460C
:102CE00000F0F9F9C4F88460AE6B3EB1D6E9022376
:102CF0003168304600F0EFF9C4F88860EE6B3EB101
:102D0000D6E902233168304600F0E5F9C4F88C605A
:102D10002E6C3EB1D6E902233168304600F0DBF973
:102D2000C4F890606E6C3EB1D6E90223316830463B
:102D300000F0D1F9C4F89460AE6C3EB1D6E902233C
:102D40003168304600F0C7F9C4F89860EE6C3EB1C7
:102D5000D6E902233168304600F0BDF9C4F89C6022
:102D60002D6D3DB1D5E902232968284600F0B3F95D
:102D7000C4F8A0500123237200207AE70402002047
:102D80005874060070B5264D2B7A012B07D06FF0D2
:102D9000060001F03BFC4FF0FF34204670BD01F00F
:102DA00067FA10B94FF0FF30F3E71E4A1E4E1F4975
:102DB0007068FF2382F8223092F82230D26863F0E4
:102DC000FF03DB4314BFB3FA83F32023C3F12003D3
:102DD000C2F30222934298BF531CFE2202FA03F36D
:102DE000104ADBB2D37701F05BFC04460028D9D14E
:102DF00001F0AAFC286101F093FC0D4801F012F8E3
:102E000001F08AF8336813F0010F4FF0020303D08A
:102E100083F314882B72C0E7032282F31488F9E746
:102E20000402002000ED00E0587406005128020062
:102E30002002002010B5134C237A022B05D06FF02E
:102E4000070001F0E3FB002010BD01F071FC01233D
:102E50006372BFF34F8F0C4A5168C90042BF4FF0F5
:102E600000615160A372E36A4BB1D869636C1BB116
:102E70001B69984228BF184604232372E4E74FF0E9
:102E8000FF30F3E70402002000ED00E0F8B5214C2C
:102E9000237A042B05463BD1E3680344E360E36AED
:102EA00053B106460127DA69B24225D8DF61B61A66
:102EB00000F0E4FFE36A13BB636C4BB101261869B1
:102EC000A8421FD81E61236D2D1A9847636CE3B981
:102ED00002230020237201F029F800236372BFF35C
:102EE0004F8FA27A22B1A3720B4B4FF080525A60DF
:102EF000BDE8F84001F014BC961BDE61DCE7002E53
:102F0000D1D1D9E7401B1861E2E7002DD7D1DFE727
:102F1000F8BD00BF0402002000ED00E07047000093
:102F200008B5FFF7FBFFEFF3058333B16FF0050042
:102F300001F06CFB6FF0050008BDFFF77CFE002878
:102F4000F4D1DFF808C000DFF6E700BF592C02001B
:102F500008B5EFF3058333B16FF0050001F056FBC0
:102F60006FF0050008BDFFF766FE0028F4D1DFF81A
:102F700008C000DFF6E700BF852D020008B5EFF3BB
:102F800005832BB16FF0050001F040FB002008BD68
:102F9000FFF751FE0028F5D1DFF804C000DFF6E7A7
:102FA000352E020008B50246EFF305832BB1BDE8CC
:102FB00008406FF0050001F029BBFFF73CFE002838
:102FC000F5D1DFF808C0104600DF08BD8D2E0200E5
:102FD00008B5EFF3058313B1054BD86808BDFFF7BB
:102FE0002AFE0028F8D1DFF80CC000DFF6E700BFAA
:102FF000040200204D2C020010B598B140EA0103F4
:1030000013F007030ED117290AD9016008391022DD
:103010000C18846042600B5081684A60C3600123D1
:10302000184610BD0023FBE7F0B578B399B132F034
:1030300003032BD10F3121F0070700F108052B46C0
:103040002D685C68E91A24F00304091B8F4204D937
:1030500029680029F3D10846F0BD466804683E445B
:1030600046602044083841688E4288BF46605868F0
:103070003A4318B95A6003F10801ECE720F0030065
:1030800019181D504A6019600831E4E70021E2E791
:1030900030B590B1D9B1A1F1080500F108040022C2
:1030A000AC420BD151F8043C23F0030443681B1BD2
:1030B000436042B941F8042C012030BD2368224608
:1030C0003BB11C46ECE751F8083C1360F4E70846B6
:1030D000F3E71846F1E730B5C0B189B1C2B1CBB161
:1030E0000024C0E9014202FB01F41D190160C36024
:1030F000436105611846013904D1A21A9950012192
:10310000084630BD851805602846F4E70146F7E714
:103110001146F5E71946F3E710B50346A8B100F1EB
:10312000140252E8000F10B9BFF32F8F04E00168BA
:1031300042E8001404B1F4E738B1043353E8002F37
:10314000511C43E8001404B1F8E710BD30B5F0B1EC
:10315000C3688B421BD803698B4218D900F1140352
:103160001A680A60BFF35F8F53E8002F0C6894421F
:10317000F6D143E8001505B1F2E7043050E8003F0E
:103180005A1E40E8002101B1F8E7002030BD6FF081
:103190000300FBE7EFF310832BB9EFF31180003846
:1031A00018BF0120704701207047036B30B5E3B1B1
:1031B000CD780024DA78AA420FD31A46C1E9012457
:1031C0008AB19160A4B16160283050E8003F5A1C78
:1031D00040E8002101B1F8E730BD5A681C46002ADA
:1031E000ECD01346E6E7C162ECE7C1E90133C16206
:1031F0000163E9E7D1E9013223B19A608A681AB123
:1032000053607047C262F9E703637047F8B5877887
:1032100004468FB3C56801460027284605F10C0611
:10322000FFF7E8FF27703046FFF790FFAB68002BF1
:1032300048D03046FFF770FF0446002842D02846A9
:1032400000F0F0FD3A460646394600F09BFE304657
:1032500000F044FE6A6A8168064604F10C003DF005
:10326000B7F9F9232370A770F368E3702146284665
:10327000BDE8F840FFF799BF8568AB68002BF5D033
:103280005B78832BF2D1284600F0CCFD3A46064607
:10329000394600F077FE304600F020FE06466A6AA6
:1032A000806804F10C013DF093F9F3680BB1E2780A
:1032B0001A7000232370214605F10C00BDE8F84088
:1032C000FFF744BFF8BD00002DE9F84F88460746D8
:1032D00000B131B96FF00301002001F0AFF9002413
:1032E00077E0CE1C26F003060C36B0FA80F104D04D
:1032F000B6FA86F30B441F2BECDD06FB07FAF2B19E
:1033000094683CB1A30702D1D368332B05D86FF082
:103310000801E1E7D368002BF9D1D2E90453D2F8D0
:1033200000903DB115F0030B01D19A4554D96FF0CF
:103330000901D1E7002BFAD11CB19B460CE0914664
:103340001546274BD3F8A000D8B1FFF7E5FE044699
:10335000A0B14FF0010B35BB214B0022D86F514675
:10336000FFF762FE0546C0B9BBF1000F06D01C4B4B
:10337000D3F8A000214658B1FFF7E8FE6FF0040132
:10338000AAE7D3F8800001223421FFF74DFEDEE7E3
:10339000D3F88000FFF77CFEF0E7524600213DF0B5
:1033A0001DFA4BF0020BFA2323700023C4E90983B2
:1033B000C4E90B33A36032462B4684F802B0C4F84C
:1033C0000490394604F10C00FFF785FE044B054AD2
:1033D0001A672046BDE8F88F002CE4D1B1E700BFA2
:1033E000040200200D3202002DE9F0410C46174680
:1033F0009846054618B10378FA2B00D141B9284602
:103400006FF0030101F01AF96FF00300BDE8F081DD
:103410008368C3B15B78832B15D100F003FD0122D3
:103420000646002100F0AEFD304600F057FD06468E
:103430006A6A806821463DF0CBF8F0680028E5D044
:1034400007700020E2E705F10C00FFF765FE064675
:1034500070B121466A6A0C303DF0BAF80024F923B5
:103460003370B470F77031462846FFF79EFEE8E7E8
:10347000B8F1000F10D04146932000F095FE40B106
:10348000074B2846596900F0BBFCEFF30983C3E9F9
:1034900002476FF00100B9E76FF00200B6E700BF26
:1034A0000402002010B500F1280353E8002F12B9E0
:1034B000BFF32F8F04E0511E43E8001404B1F4E77A
:1034C0000AB9002010BDC06A01230028F9D0821C6F
:1034D000D2E84F1FC2E8443F04B1F9E711F0FF0FF3
:1034E000F0D08068F1E700002DE9F0410F46154665
:1034F0009846044618B10378FA2B00D141B920460A
:103500006FF0030101F09AF86FF00300BDE8F0815D
:10351000FFF7C8FF064600283AD001462046FFF7CD
:1035200069FE626A06F10C0138463DF051F80DB1B2
:10353000F3782B70002504F10C07357031463846BE
:10354000FFF704FEA3680BB90020DFE73846FFF75A
:10355000E3FD06460028F7D0204600F063FC29462C
:103560000746012200F00EFD384600F0B7FC626A03
:103570008168074606F10C003DF02AF8F923337004
:10358000B570FB68F37031462046FFF70EFEDBE7AF
:10359000B8F1000F10D04146832000F005FE40B185
:1035A000074B2046596900F02BFCEFF30983C3E970
:1035B00002756FF00100A9E76FF00200A6E700BFF7
:1035C0000402002010B50446EFF3058333B1002058
:1035D0006FF0050101F032F8002010BDFFF7DAFDB1
:1035E0000028F4D1DFF808C0204600DFF5E700BF6F
:1035F000C93202002DE9F04106460F4690461C46AE
:10360000EFF305834BB196B930466FF0030101F03B
:1036100015F86FF00300BDE8F081FFF7BBFD00284F
:10362000F1D1DFF84CC03046234600DFF3E73378B2
:10363000FA2BE9D1002FE7D0002CE5D106F10C00E0
:10364000FFF76AFD054680B1726A39460C303CF0DE
:10365000BFFFF9232846C5E901762B70AC7085F8C9
:10366000038000F0CDFA2046D5E76FF00200D2E7E4
:10367000E9330200F8B504460F4616461D46EFF33F
:10368000058343B18CB920466FF0030100F0D6FFEB
:103690006FF00300F8BDFFF77DFD0028F2D1DFF8E1
:1036A00048C020462B4600DFF4E72378FA2BEAD106
:1036B000002FE8D0002DE6D12046FFF7F3FE0546A7
:1036C00070B100F10C01626A38463CF081FF0EB126
:1036D000EB7833702846EC6000F092FA0020D9E7CE
:1036E0006FF00200D6E700BFE9340200EFF3108369
:1036F0002BB9EFF31180003818BF0120704701206B
:103700007047000070B5A8B38468D0E900566CB16A
:1037100014F0030302D1C2681B2A1AD86FF0080103
:10372000002000F085FF0024204670BDC368002BF8
:10373000F4D1124BD3F8940030B9D3F880000122B1
:103740001C21FFF771FC01E0FFF7E6FC044660B1C5
:103750000123F522A3700023C4E90233C4E9043332
:103760002270E67065602376DEE76FF0040100F0FA
:103770005FFFD9E705460646DBE700BF04020020ED
:10378000284B70B55D6904460E4635B96FF00701E8
:1037900000F04EFF4FF0FF3070BD10B10378F52BF5
:1037A00007D020466FF0030100F042FF6FF00300E6
:1037B000F2E7037E53B9C0E90353EB6A436103B1F7
:1037C0001861EC62012323760020E5E7C278D10777
:1037D0000DD5C168A9420AD1FF2B06D16FF00F01A8
:1037E00000F026FF6FF00200D6E70133EBE7002E72
:1037F000F8D093070AD5E06895F9203090F9202099
:103800009A4203DA80F8203000F01EFB3146532044
:1038100000F0CAFC18B12946204600F0F1FA6FF01A
:103820000100B9E70402002038B52F4B5A6904465D
:1038300032B96FF0070100F0FBFE4FF0FF3038BDEA
:1038400010B10378F52B07D020466FF0030100F08C
:10385000EFFE6FF00300F2E7037E33B96FF00E0165
:1038600000F0E6FE6FF00200E9E7C168914202D085
:103870006FF00D01F4E7013BDBB2037633BB436924
:103880000BB101691961216911B34B61E3789B07A1
:1038900005D592F92110D36AE3B982F82010A36804
:1038A0008BB1204600F0BEFA00220546114600F01A
:1038B00069FB00232361EB6AE560636103B11C616E
:1038C0000123EC622376002000F030FB0020B6E7F5
:1038D000D362DBE7986820B190F920008142B8BF3D
:1038E00001465B69D8E700BF0402002070B50446BA
:1038F00010B10378F52B07D020466FF0030100F0DC
:1039000097FE6FF0030070BD037ED3B16369C0689A
:103910000BB122691A6122691AB35361E3789B07DC
:103920000BD590F92130C26AEAB990F920209A4269
:1039300003D080F8203000F087FAA068E0B900F0EA
:10394000F5FAA078002610F001002670DBD0124BAB
:10395000D3F894502146C5B12846FFF7F7FB30460F
:10396000D1E7C362DAE7916821B191F920108B4267
:10397000B8BF0B465269D7E7204600F053FA002241
:103980006FF0020100F0FEFAD7E7D3F88000FFF7EE
:103990007FFB2846B7E700BF040200202DE9F04175
:1039A0000446002601270CB9BDE8F081E378D4F87D
:1039B00014801B0712D5A36826767BB1204600F041
:1039C00031FA00220546114600F0DCFAEB6A636129
:1039D000C4E9035603B11C61EC6227764446E2E772
:1039E00010B4C3789B071AD5C06890F92130C26A19
:1039F00094688C4208BF8C6824B194F92040A3429B
:103A0000B8BF23465269002AF2D190F920209A4289
:103A100005D080F820305DF8044B00F015BA5DF851
:103A2000044B704708B50246EFF3058333B100201D
:103A30006FF0050100F0FCFD002008BDFFF756FE09
:103A40000028F4D1DFF808C0104600DFF5E700BF1A
:103A50000537020008B50246EFF305833BB1104677
:103A60006FF0050100F0E4FD6FF0050008BDFFF701
:103A70003DFE0028F3D1DFF808C0104600DFF5E76F
:103A80008137020008B50246EFF305833BB11046CB
:103A90006FF0050100F0CCFD6FF0050008BDFFF7E9
:103AA00025FE0028F3D1DFF808C0104600DFF5E757
:103AB0002938020008B50246EFF305833BB11046F2
:103AC0006FF0050100F0B4FD6FF0050008BDFFF7D1
:103AD0000DFE0028F3D1DFF808C0104600DFF5E73F
:103AE000ED38020010B5D0E85F3F5A1C914200D873
:103AF0000022C0E8542F04B1F5E798B210BD0000D1
:103B000038B51A4C00F01AFEE3680133E360236D08
:103B100003B1984700F0B2F9002000F007FA236CD7
:103B20001BB3A26BA1698A4202D0A163E3631CE0CC
:103B3000E36BB3B9237A022B17D1656AADB195F95E
:103B4000201092F9203099420FD1284600F073F9E5
:103B5000A06B00F08BF9284600F0DEF9236CA5631A
:103B6000E4E7013BE363002BE4D038BD040200200E
:103B700070B5224C04F1560504F15A06B4F85410FD
:103B8000D5E85F3F13B9BFF32F8F04E05A1EC5E895
:103B9000502F00B1F4E79BB25BB33046FFF7A2FFB2
:103BA000E36D53F8200020B30378F13B082BE5D8F0
:103BB00001A252F823F000BFDD3B02007D3B020072
:103BC000E33B02007D3B02007D3B0200E73B02003D
:103BD000EB3B02007D3B0200EF3B0200236E984767
:103BE000CCE7636EFBE7A36EF9E7E36EF7E7236FBD
:103BF000F5E7BDE87040002000F098B9040200200D
:103C000070B5164C0546B4F8541004F15602D2E8CB
:103C10005F3F994202D8BFF32F8F04E0581CC2E8DF
:103C2000560F06B1F3E79BB2994205D82946022008
:103C3000BDE8704000F0ACBC04F15800FFF752FF43
:103C4000E36D43F82050637A23B9054B4FF080525F
:103C50005A6070BD0123A372FBE700BF040200207D
:103C600000ED00E0EFF310832BB9EFF31180003883
:103C700018BF01207047012070470378F12B00D056
:103C80007047C068F9E7000010B50A4A90F92010A3
:103C900001234370536A1C321BB193F920408C42BC
:103CA00005DCC0E90232906003B1D86010BD1A464D
:103CB0009B68F1E704020020014B5869704700BF80
:103CC0000402002008B500F0BFFCDFF810C000DFE0
:103CD0004FF0FF31002000F09FFCFEE71142020090
:103CE000930710B502F0010422D400F1280384B137
:103CF00053E8000F00EA01028A4203D0BFF32F8F7E
:103D0000002005E020EA010243E8002404B1EFE7C7
:103D100010BD53E8000F084203D1BFF32F8F0020DE
:103D200005E020EA010243E8002404B1F1E7EFE7EF
:103D3000806A01EA00031CB1994218BF0020E7E73E
:103D4000002B08BF0020E3E710B5084A136B0021E1
:103D50003BB94FF0FF34C0E90431C46121B10861BF
:103D600010BD19461B69F3E71063F9E70402002050
:103D700010B5C469621CD0E904310AD103B159619C
:103D800042691AB113610023436101E0064A1363DB
:103D900010BD1BB1DA6959612244DA614269002A17
:103DA000F0D1014AD362F3E70402002010B50023EA
:103DB000038083789A07044608D513F0100F016B2F
:103DC0000E4B0FD0D3F88400FFF7C0F9A378DB07C0
:103DD00012D50A4BD3F88800214638B1BDE810400F
:103DE000FFF7B4B9586FFFF753F9EFE7BDE810409C
:103DF000D3F88000FFF74CB910BD00BF04020020CB
:103E000010B591F9202083681BB193F920409442AA
:103E100005DAC1E90230816003B1D96010BD1846EE
:103E20009B68F1E783689A68826002B1D0600022E3
:103E3000DA6018467047C2682AB18368936003B19C
:103E4000DA600023C360704710B50146044664B1D0
:103E50002378F12B07D00846FFF7EDFF2046BDE899
:103E60001040FFF7CDBFE468F1E710BD0123014624
:103E700043700148FFF7C4BF2002002038B5164D3B
:103E8000EC6A44B3E369013BE36123BB6378732BC2
:103E900006D009D8532B0BD003F0DF03432B0DD1F1
:103EA0002046FFF7EAFE09E003F0EF03832BF6E775
:103EB0002046FFF7E2FE2146FFF792FD2046FFF77E
:103EC000BAFFFFF7D3FF246924B1E369002BDDD0EB
:103ED00000236361EC6238BD0402002090F82230B8
:103EE000826B13F0100F0CBF60202020104470472D
:103EF000074B596951B10B6B8A6B934203D21A6815
:103F0000044B9A4202D0012000F042BB704700BF30
:103F100004020020A52E5AE208B502234370024B8A
:103F20009861FFF7E5FF08BD0402002010B5144BAF
:103F300004461A7A5969A0B9022A1FD15C6AECB109
:103F400094F9202091F920309A4217DD2046FFF79E
:103F500072FF0846FFF798FE2046BDE81040FFF7C5
:103F6000DBBF022A05D190F9202091F920309A4236
:103F7000EFDC2046BDE81040FFF778BF10BD00BF62
:103F80000402002038B504461546FFF7A7FF01607C
:103F90002046FFF7EDFE1DB1BDE83840FFF7C6BF74
:103FA000BDE83840FFF762BF10B54378332B0446B5
:103FB0000CD1416A90F82320FFF792FE014628B108
:103FC00020460022BDE81040FFF7DCBF10BD000016
:103FD0002DE9F04F85B08146029128B96FF00301B9
:103FE00000F01AFB0024BCE0002A45D0966846B1D8
:103FF000B40702D1D368432B06D86FF00801002024
:10400000EEE7D368002BF8D1D2E9044597693CB1BB
:10401000600702D1002D40F0B2806FF00A01EEE798
:104020002FB17B1E372B03D96FF00B01E7E7182761
:10403000002D40F0A880D2E900A301934EBB554B60
:10404000D3F88800F0B1FFF767F8064600283AD0A9
:104050004FF00108002C44D1DFF838B1E5B94E4AE1
:10406000DBF88400556DB8B1FFF756F80246E0B1B1
:1040700048F01008344623E09246144618271546A7
:104080000192DCE7D3F8800001224421FEF7CCFF47
:10409000DBE74FF00008DDE72246DBF87400294635
:1040A000FEF7C2FF02460028E4D1B8F1000F16D097
:1040B000DBF8882052B110463146FFF747F800225E
:1040C00048F002087CB96FF0040198E7DBF8800043
:1040D00003923146FEF7DCFF039A1446F0E74246AE
:1040E000EEE72246344640F2F1132380019BE37051
:1040F0000023C4E90233C4E90433C4E90633C4E944
:104100000933C4E90B32A5F140031344C4E90E3965
:104110007FB2224B84F80280FD21C4F804A084F809
:10412000207084F821706184656313601A4B1B68EA
:104130005B071AD4A36B00201A4603F1340143F83D
:10414000040B9942FBD1164BC2E90D394FF0807335
:10415000D363029B13620F4B124A1A662046FFF785
:10416000E5FE204605B0BDE8F08FAD08113D4FF0EB
:10417000CC33002DDED042F8043F013DF9E7002F9B
:104180007FF44FAF182769077FF447AF472D3FF6FD
:1041900052AF42E70402002058740600A52E5AE2EE
:1041A000C53C0200A93F020038B5174A137A022B1A
:1041B0000446154626D1506A58B150694B1C4470CC
:1041C00008D1FFF7C1FD1148FFF72CFEFFF7A4FE51
:1041D000012038BDD36A002213B1DC69A1420BD2A1
:1041E000C0E90432C1615AB11061002BEBD0DA6929
:1041F0005861511AD961E6E71A46091B1B69EBE7BA
:10420000E862F2E70020E4E7040200202002002038
:1042100038B5154D2B7A022B25D16B6A1BB36C690F
:10422000E06AFFF7BBFBA06918B100221146FFF757
:10423000A9FEEFF309830D48A363FFF7F3FDFFF732
:104240006BFE00236B61E278D20704D42046BDE800
:104250003840FFF7ABBD04226270E3606B6BA36074
:1042600003B1DC606C6338BD040200202002002032
:1042700038B50B4C0B48A26D0B4D0021FFF7A8FE83
:10428000636EA8624BB1E26D08480021FFF7A0FE03
:10429000A864003818BF012038BD0120FCE700BF2A
:1042A000587406008945020004020020954302006C
:1042B00010B50446EFF3058333B100206FF005011C
:1042C00000F0AAF9002010BDFFF7CCFC0028F4D1C3
:1042D000DFF808C0204600DFF5E700BFD13F02004D
:1042E00008B5EFF3058313B1054B586908BDFFF717
:1042F000B9FC0028F8D1DFF80CC000DFF6E700BFFA
:1043000004020020B93C02000C4A536C30B5002472
:1043100013B11D698D420AD9C0E9024301611BB185
:104320001D699860691A19612CB1E06030BD1C46A6
:10433000491BDB68ECE75064F8E700BF040200208B
:1043400070B5134D6C6C04B32369013B23610126E6
:104350002369D3B9E3680BB1A2689A606B64002348
:10436000E86C1A4604F11801FFF744F918B1214628
:10437000032000F00DF9E378012B07D16169204695
:10438000FFF7C2FF6C6C002CE2D170BD6670F9E7DC
:10439000040200200B4B0C4C07B51A6E586E082116
:1043A000FFF710F9094AE0642265E06C4FF0FF3333
:1043B00000226946FFF75EF90028F6D1DDE90030FA
:1043C0009847F2E7587406000402002041430200B7
:1043D00008B5094B094A1A60094B9B1A094A136030
:1043E000094B0A4A1A600A4B9B1A0A4A136000F0EA
:1043F00051F800F069F800BF6C16002000FC0320A3
:104400000000042068160020284E0020300A0120F9
:1044100000FC0320244E00200E4838B50E4B0360EC
:104420000B250E4B45601C24C4608360FFF7FAFA2D
:104430000B4B18600B480C4BC460C0E900350B4BAC
:104440008360FFF7EFFA0A4B1860BDE838403BF095
:10445000CBBC00BF38160020247506004C16002087
:104460004816002008160020317506001C16002092
:1044700018160020FDF728BC024B4FF0FF311868DA
:10448000FFF7E8BA48160020014B1868FFF7FABAA0
:104490004816002008B537F005FFBDE8084000F0D9
:1044A00011B87047704708B500F042F8FFF7F9FF00
:1044B000FFF7B2FFFFF7F6FF34F0D8F9BDE8084088
:1044C000FFF7D8BFFEF72CBD114C124B23614FF400
:1044D000004363614423E3600F4BA360182307B5D7
:1044E000A3610E480E4B236022460021FFF7E0FE39
:1044F000034628B90B49009022460B4834F0F6F9E0
:10450000FEF726FD0023094900931A46F5E700BF90
:1045100038D500203855002070160020A74402002E
:104520004B750600507506001D0101806C75060074
:104530001FB5064B0FCB6C4684E80F002046FFF7F3
:1045400071FA034B186004B010BD00BF84750600FB
:104550003055002073B506460C46154634F0B8F9C0
:1045600058B906342ABF064B064953F824100023D5
:1045700000933246284634F0B9F902B070BD00BF4E
:10458000487706009C76060008B500F0E1F80000C8
:1045900007B50023421E00930023042A19D8DFE840
:1045A00002F003080C1014000C490D48012234F0ED
:1045B0009DF90C490C480222F9E70C490C480322EA
:1045C000F5E70C490C480422F1E70C490C48052298
:1045D000EDE702460B490C48E9E700BF9475060079
:1045E00025010280B575060026010280DA750600F5
:1045F000270102800F760600280102804A76060015
:104600002A0102808A76060000010280014A0146E2
:10461000FFF7A0BF31010180014AFFF79BBF00BF38
:1046200032010180014AFFF795BF00BF37010180C9
:10463000014AFFF78FBF00BF33010180014AFFF736
:1046400089BF00BF3801018010B5FFF749FE034B59
:104650001B6813B1BDE81040184710BDB416002008
:10466000024B987A003818BF0120704704020020DE
:1046700008B5FEF783FC0749002234F011FAC31C89
:1046800004D9054905488B2233F06CFEBDE808408B
:10469000FEF788BC61460200607706009577060049
:1046A000B0F57A7F38B50D4604D018491848322243
:1046B00033F058FE33F00EFC041E13DB04F16043AC
:1046C00003F56143E02283F800232946204637F0B2
:1046D00031F9204637F036F985420AD00B490D48AA
:1046E0003F22E5E70C4B04F00F021344E0221A7658
:1046F000EBE7002C08DB094B6209012004F01F04E2
:1047000000FA04F443F82240002038BD6077060028
:10471000C2770600CF770600FCEC00E000E100E085
:1047200008B534F045F9BDE8084033F0DABC0000C4
:10473000014B186833F00ABD404A0020014B18684D
:1047400033F0C6BC404A002008B533F0C3FB08BDB7
:1047500008B5024C23689847FCE700BFA802002078
:1047600030F02ABE1FB501238DF8043001A80023C4
:10477000CDE9023330F09AFC05B05DF804FB1FB5BB
:10478000002301A8CDE90133039330F08FFC05B07D
:104790005DF804FB2DE9D741846A019298460E46E4
:1047A000074619F027FE637B0199022B804410D045
:1047B000032B11D0012B01D108F1280830683C6986
:1047C00000EB0803A3420AD93460002003B0BDE81F
:1047D000D08108F11808F1E708F5A878EEE77B68C2
:1047E000241A53B1986819F025FE844228BF044664
:1047F000A04502D933681C44E6E7064B1B689B883A
:10480000A4EB08004FF47A745C43A04228BF204612
:10481000DCE700BF741A00202DE9F041866AF36ED0
:104820000446884603B19847A268002306F18C012C
:104830002046FFF7AFFF074618B9BDE8F04119F071
:10484000A7BD134DA3686B67404630F037FC114B92
:10485000AB67A068104BEB67C5F8847019F0D0FD0A
:10486000C5F88000A06005F1780030F009FC002355
:1048700085F87030736E3BB1FFF774FF306E2721FF
:10488000BDE8F04130F0EEBCFFF779FFF6E700BF7E
:1048900020D60020C54A0200154902002DE9F0414A
:1048A0000D461B4C07462FF049FE616F064619F076
:1048B000C1FDEB6AA846184448F82C0F666719F04A
:1048C00099FD3246034641463846FFF763FF0646E8
:1048D000E0B1676F19F08EFD384419F091FDC4E91D
:1048E000200604F1780030F0CBFB002384F8703010
:1048F0006B6843B1FFF736FF2868272130F0B2FC20
:104900000020BDE8F081FFF73AFFF5E70120F8E766
:1049100020D600202DE9F04F85B0934601919A46AC
:1049200006462FF00BFE644C206019F02BFD19F0A9
:1049300029FD624B856A93F8707001997A1CA04634
:1049400081465F4C83F870207FB1022F79D0A58C0F
:104950002FF0F4FDD8F80030C01A854240F2A38051
:10496000A08CA08405B0BDE8F08F76B1F31EDBB259
:10497000012B8EBF012000200127042E47D1636840
:1049800001336360002F38D18AE09DF8383085F814
:10499000821085F88330C5E921BA286E05F19003AD
:1049A000324605F1480101F00FFD002841D02B6F80
:1049B000296E4846984700287CD0678C2FF0BEFDB2
:1049C000D8F80030C01A87421AD9608C95F8803028
:1049D000ADF808306B6E60840393FFF7C3FE0121CE
:1049E00002A830F0F3FB6B6F13B1296E484698476D
:1049F000236801332360002EA9D030F0D5FC11E0EC
:104A00002FF09CFDD8F80030C01A80B2DEE701D844
:104A1000032E10D0E3690133E361002F40D016F07C
:104A2000FB0FEAD019F0BEFC002834D019F0C0FC0E
:104A30008DE70126DCE7A3680133A360002FF1D1E5
:104A40002EE02EB1F31E012B13D90027012015E013
:104A5000A86E05F19003324605F1480101F0B4FC5F
:104A600018B1EB6FA96E484698472369013323615B
:104A7000C3E7EB6F0021984701270020042E06D0E2
:104A8000C8D8032EC6D1A3690133A361D6E76369F1
:104A90000133636176E705F160014846FFF7FEFEEA
:104AA0000028C3D153E72FF049FDD8F80030C01AD1
:104AB00080B256E7012696E7C0D5002020D6002018
:104AC00078D500202DE9F84381462FF037FD2A4D97
:104AD0002A4C286019F056FC19F054FC284B876AC0
:104AE00093F87060721C012E804683F8702027D1E5
:104AF000B9F1000F3BD1BB6F796E984778B1268C26
:104B00002FF01CFD2B68C01A864224D9238C2384E5
:104B1000FFF735FEB86E272130F01CFC0026E36855
:104B20000133E36066B130F03FFC19F03BFC28B97B
:104B300007F160014046FFF7B1FE08B119F038FCFB
:104B4000E68C2FF0FBFC2B68C01A864209D9E08C5A
:104B5000E084BDE8F8832FF0F1FC2B68C31A9BB208
:104B6000D5E72FF0EBFC2B68C01A80B2F0E7E369C1
:104B70000133E361E2E700BFC0D5002078D5002013
:104B800020D6002008B5064A0649022001F046FB5F
:104B9000BDE808400448282200213BF01FBE00BFAA
:104BA000614702001948020078D500201FB5002394
:104BB00001A8CDE90133039330F078FA05B05DF830
:104BC00004FB00002DE9F04F89B08B469DF848109A
:104BD00001929A46009106462FF0B0FC9D4FDFF8F7
:104BE0008092386019F0CEFB19F0CCFB99F8703048
:104BF000856A994C022BDDE90012804600F0B880EE
:104C0000032B00F018819BB9FEB1F21ED2B2012A2B
:104C10008EBF012200220123042E40F090806168A3
:104C200001316160002B40F09680002A40F09580B1
:104C3000258E2FF083FC3B68C01A854240F26681C6
:104C4000208E208609B0BDE8F08F85F87E10C5E97A
:104C5000202A6B6E814985F87DB0984778B32B6E1A
:104C6000002B7DD00123B4F82E8089F870302FF00E
:104C700065FC3B68C01A80451BD9E08D95F87430FF
:104C8000E085ADF80C304FF001082B6E049305A8B9
:104C90000025CDE906558DF8148030F007FA41461D
:104CA00003A830F093FA226801322260002D4FD120
:104CB000BEE72FF043FC3B68C01A80B2DEE7EB6E24
:104CC000002B35D0654940469847834680B303237F
:104CD00089F8703030F068FB284630F0EFF90AEBC5
:104CE0000B0019F08DFBC9F8800009F1780030F055
:104CF000C7F9B4F82C902FF021FC3B68C01A81450D
:104D000010D9A08DA085FFF751FF544840F2011142
:104D100030F0A8FA2B6F514940469847B0FA80F519
:104D20006D09C0E72FF00AFC3B68C01A80B2E9E7C2
:104D30002B6F13B14949404698470125B3E701D885
:104D4000032E0FD0A16A0131A162002B3FF46DAF99
:104D500016F0FB0F01D130F027FB19F029FB67E7B4
:104D60003546A0E7A1680131A160002BF5D15CE7D1
:104D7000032389F870302EB1F31E012B49D900238B
:104D800001224BE0AB6E85F87E10C5E9202A33493D
:104D900085F87DB09847EB6E002B33D02F49404605
:104DA0009847834670B3284630F088F90AEB0B0029
:104DB00019F026FBC9F8800009F1780030F060F99D
:104DC000B4F82C902FF0BAFB3B68C01A814513D978
:104DD000A08DA085FFF7EAFE204840F2011130F0D7
:104DE00041FA2B6F1D4940469847B0FA80F56D098E
:104DF00022690132226159E72FF0A0FB3B68C01AFB
:104E000080B2E6E72B6F13B114494046984701255D
:104E1000EEE7AB6E0021984701230022042E06D056
:104E200090D8032E8ED1A1690131A1619DE76169FE
:104E300001316161F6E6EB6EA6B1F21E012A4BD993
:104E4000002198472B6F1BB1002140469847002353
:104E500001224AE0C0D50020BC170020B81600206F
:104E600020D600202C499847834670B3284630F05E
:104E700025F90BEB0A0019F0C3FAC9F8800009F113
:104E8000780030F0FDF8B4F82C902FF057FB3B6819
:104E9000C01A814513D9A08DA085FFF787FE1E4853
:104EA00040F2011130F0DEF92B6F1B494046984764
:104EB000B0FA80F56D09E2690132E261F6E62FF0A1
:104EC0003DFB3B68C01A80B2E6E72B6F13B1124975
:104ED000404698470125EEE7002198472A6F7AB1AE
:104EE00000214046904701230022042E0AD03FF6BD
:104EF00029AF032E7FF426AF616A0131616234E786
:104F00000123F2E7216A013121628BE62FF016FBC3
:104F10003B68C01A80B294E6B816002070B5064609
:104F20002FF00CFB1E4D1F4C286019F02BFA1E4A67
:104F300092F87030591C012B82F8701013D146BBC7
:104F4000A68D2FF0FBFA2B68C01A864215D9A08DCA
:104F5000A085FFF72BFE154840F2011130F0FAF959
:104F6000E3680133E360668E2FF0E8FA2B68C01A1D
:104F7000864208D9608E608670BD2FF0DFFA2B68FC
:104F8000C01A80B2E4E72FF0D9FA2B68C01A80B2B9
:104F9000F1E7A36A0133A36219F00AFAE3E700BF5D
:104FA000C0D50020BC17002020D60020B816002055
:104FB00070B5104C866A0546084630F07FF80E4BF7
:104FC000E367A868B36EC4F8843019F019FAC4F81E
:104FD0008000A86004F1780030F052F8002384F8D3
:104FE0007030FFF7E3FDBDE87040044840F2011166
:104FF00030F038B920D6002001500200F017002010
:105000002DE9F74F0E469DF8301001929A46009117
:1050100005462FF093FA804FDFF80C92386019F0B4
:10502000B1F919F0AFF999F87030D0F828B07B4C8D
:10503000DDE90012804673B1032B7ED0258C2FF062
:105040007DFA3B68C01A854240F2E080208C2084C3
:1050500003B0BDE8F08F85B1EA1ED2B2012A8EBF3F
:10506000012200220123042D51D1616801316160C8
:10507000002B57D1002A57D1E0E7032389F870307D
:105080008BF86D600126CBE91C2A8BF86E10DBF8DB
:10509000603063498BF878602A46984788B300905F
:1050A000584630F00BF8009B0AEB030019F0A8F902
:1050B000C9F8800009F178002FF0E2FFA68B2FF0ED
:1050C0003DFA3B68C01A864215D9A08BA083FFF732
:1050D0006DFD534840F2011130F0C4F8DBF8643044
:1050E000504940469847B0FA80F676092368013364
:1050F0002360A6B9A2E72FF021FA3B68C01A80B25C
:10510000E4E7DBF86430464940469847EEE701D8CB
:10511000032D0CD0A1690131A161002BAAD015F09B
:10512000FB0F01D130F040F919F042F986E7A16890
:105130000131A160002BF7D19CE7DBF860306DB145
:10514000EA1E012A4BD92A4600219847DBF8643031
:10515000002140469847002301224AE08BF86D6009
:105160008BF86E108BF878502D492A4698470646E2
:1051700070B358462FF0A2FF06EB0A0019F040F971
:10518000C9F8800009F178002FF07AFFA68B2FF084
:10519000D5F93B68C01A864214D9A08BA083FFF7CB
:1051A00005FD1F4840F2011130F05CF8DBF8643077
:1051B0001C4940469847B0FA80F67609E368013307
:1051C000E36096E72FF0BAF93B68C01A80B2E5E7D2
:1051D000DBF864301249404698470126EEE72A463C
:1051E00000219847DBF864300021404698470123AE
:1051F0000022042D06D08DD8032D8BD16169013199
:10520000616197E721690131216131E72FF096F95A
:105210003B68C01A80B21AE7C0D50020F4180020FD
:10522000F0170020B816002020D600207FB5174CBC
:10523000866A054608462FF041FF154BA367154BBC
:10524000E367A868B36FC4F8843019F0D9F8C4F8DC
:105250008000A86004F178002FF012FF002384F88A
:105260007030326E72B1012201A8CDE902338DF89F
:1052700004202FF01BFF084840F201112FF0F2FF2D
:1052800004B070BDFFF792FCF5E700BF20D6002008
:105290001D4F0200C54B0200B816002008B5064994
:1052A0000022062000F0BAFFBDE80840034834227F
:1052B00000213BF093BA00BF2D520200BC17002022
:1052C00008B506490022092000F0A8FFBDE8084003
:1052D0000348242200213BF081BA00BFB14F0200F5
:1052E000F418002030F068B81FB5002301A8CDE9FC
:1052F000013303932FF0DAFE05B05DF804FB0000E4
:105300002DE9F04F85B080460E469346994619F038
:1053100049F8074668B9434CD8F828A094F8723089
:1053200094F87150032B06D118B184F8723084F8C8
:105330007150012750E0022D86BF033DEAB22A4694
:1053400002F125018AF80110F17E551C41FA02F2A2
:105350000133D207DBB2EDB24FF00100E2D584F8A1
:10536000723084F87150B9F1000F04D11BF0FB0FBB
:1053700001D130F019F850462FF0A0FEB9F1000F1E
:105380002ED0D8F8080019F03BF8C4F88000C8F80F
:105390000800002384F87030F56835B1D4F8800037
:1053A00019F02EF801464046A8471F482FF068FE26
:1053B00073689BB301238DF8043001A80023CDE965
:1053C00002332FF073FE337EADF8043001213368D1
:1053D000029301A82FF0A0FE384605B0BDE8F08F7B
:1053E000736853B12FF0AAF8054619F003F8284462
:1053F00019F006F8C4F88000CBE7327E9AF80E1058
:105400009AF80C0017F06BFF054618F0F3FF2844DC
:1054100017F0C4FFD4F880301844E9E7FFF764FFC1
:10542000D1E700BF20D6002098D6002010B50E4B43
:105430000E4A816A9A670E4ADA670422C3F884200A
:1054400091F87A4083F87140002283F8702083F845
:10545000722060310123FFF753FF18B1BDE81040FF
:1054600018F096BF10BD00BF20D60020A95502003D
:10547000755402002DE9F74F994606462FF05EF865
:10548000464F474C386018F07DFF18F07BFF454AC7
:10549000856A92F87030591C012B804682F8701092
:1054A00062D105F1600B002E4AD1686EC5F87C9080
:1054B00005F18003324605F1480100F085FF824680
:1054C00040B32B6F696E4046984718B3B4F81A90F2
:1054D0002FF034F83B68C01A814515D9608B608382
:1054E000FFF702FF95F87930ADF800300121AB6E7F
:1054F000019368462FF06AFE4FF000096B6F9BB175
:10550000696E404698470FE02FF018F83B68C01AC4
:1055100080B2E4E700231A4659464046FFF7F0FE02
:105520008146BAF1000FE9D1636801336360B9F1D4
:10553000000F19D016F0FB0F27D018F039FF13E039
:10554000002332465946FFF7DBFE042E814617D072
:1055500001D8032E03D0636901336361E7E7E36891
:105560000133E3600028E8D1A58B2EF0E7FF3B680C
:10557000C01A85420CD9A08BA08303B0BDE8F08F80
:10558000A3680133A3600028EED02FF00DFFD4E70D
:105590002EF0D4FF3B68C01A80B2EDE7C0D50020E2
:1055A000A0D5002020D600202DE9FF4107462EF08F
:1055B000C5FF324E324C306018F0E4FE18F0E2FEC7
:1055C0002FB163690133636118F0F2FE0CE02D4BDB
:1055D000D0F8288093F870506A1C08F1600183F8B5
:1055E00070206DB1022D39D0E58B2EF0A7FF336806
:1055F000C01A85423BD9E08BE08304B0BDE8F0815E
:10560000D8F8643023B3278B2EF098FF3368C01A84
:10561000874217D9208B208301238DF8043001A8FD
:105620000023CDE902332FF041FDD8F86400242196
:105630002FF090FE236801332360002DD4D02FF08B
:10564000B3FEC1E72EF07AFF3368C01A80B2E2E7FA
:105650002B462A46FFF754FE0546EBE73B463A4603
:10566000FFF74EFE2369013305462361E5E72EF07F
:1056700065FF3368C01A80B2BEE700BFC0D5002006
:10568000A0D5002020D6002008B5064A06490320F0
:1056900000F0C4FDBDE808400448202200213BF092
:1056A0009DB800BFE55202002D540200A0D5002095
:1056B0001FB5002301A8CDE9013303932FF0F6FCB9
:1056C00005B05DF804FB00002DE9F0479A46054659
:1056D0002EF034FF354E364C306018F053FE18F083
:1056E00051FE344B876A93F8709009F10102B9F1C9
:1056F000010F804683F8702043D175BB9DF82030A0
:1057000087F8A130396FD7F89430C7F8A4A098472C
:1057100080B3B4F81E902EF011FF3368C01A814593
:1057200015D9E38BE383FFF7C3FF022107F1740070
:105730002FF04CFDD7F8983013B1396F4046984799
:10574000636801336360E5B12FF02EFE17E02EF0A1
:10575000F5FE3368C31A9BB2E4E7042D1CD001D8D0
:10576000032D09D0A36915F0FB0F03F10103A36119
:1057700005D1E9E74D46E3E7E3680133E36018F05C
:1057800017FE258C2EF0DAFE3368C01A854207D941
:10579000208C2084BDE8F087A3680133A360D3E7A1
:1057A0002EF0CCFE3368C01A80B2F2E7C0D50020DC
:1057B000C4D5002020D60020F8B5CB6B06460D4698
:1057C0000BB90120F8BD0121984704460028F8D004
:1057D000B06A144E2FF072FCD6F88000204418F006
:1057E0000FFE114CC6F8800006F178000F4E2FF026
:1057F00047FCA78B2EF0A2FE3368C01A87420AD955
:10580000A08BA083FFF754FF05F1240002212FF0A5
:1058100083FC0020D6E72EF091FE3368C01A80B2D8
:10582000EFE700BF20D60020C4D50020C0D500205F
:105830002DE9FF4705462EF081FE404E404C30607A
:1058400018F0A0FD18F09EFD81462DB1A36901332B
:10585000A36118F0ADFD19E0DFF8E880876A98F8D9
:105860007050022D07F1600A3DD0032D55D06DB95F
:105870003B6FBBB90323514688F87030FFF79CFF9C
:105880000546236801332360002D54D1658C2EF02A
:1058900055FE3368C01A854247D9608C608404B0D5
:1058A000BDE8F087012388F87030B4F81C802EF032
:1058B00045FE3368C01A80450FD9A08BA083012311
:1058C0008DF8043001A80023CDE902332FF0EEFB60
:1058D000386F24212FF03EFDD3E72EF02FFE3368E2
:1058E000C01A80B2EAE7032388F8703097F8A11055
:1058F000787BD7F8A4500E2217F0F1FC9635284497
:1059000018F07EFD5146C8F880004846FFF754FF66
:105910002369013305462361B6E75146FFF74CFF83
:105920006369013305466361AEE72EF007FE336815
:10593000C01A80B2B2E72FF037FD8AE7C0D5002049
:10594000C4D5002020D60020F0B51D4C1D4B866A22
:10595000A3671D4BE3670423C4F8843085B000239C
:105960000F460546A4F8703018F01CFD014610BB28
:10597000D6F89C300BB12846984738462FF09EFB4E
:10598000A86818F03DFDC4F88000A8600F48002505
:1059900084F870502FF074FB336F73B1012301A8AA
:1059A000CDE902558DF804302FF080FB022106F17D
:1059B00060002FF0B1FB05B0F0BDFFF779FEF5E711
:1059C00020D6002031580200C956020098D6002087
:1059D000FFF7BABF08B508490022072000F01EFCF7
:1059E00006490022082000F019FCBDE808400448E0
:1059F000242200213AF0F2BE49590200D159020096
:105A0000C4D500201FB501238DF8043001A8002360
:105A1000CDE902332FF04AFB05B05DF804FB00002E
:105A20002DE9F04105460E4618F0ACFC836A1B7860
:105A3000042B0BD1124B93F870303BB9FFF7E2FF08
:105A400031462846BDE8F0412FF066BB0D4C0E4FA5
:105A5000B4F816802EF072FD3B68C01A804509D953
:105A6000E38AE382FFF7CEFF31462846BDE8F041E6
:105A70002FF0ACBB2EF062FD3B68C31A9BB2F0E77F
:105A800020D60020E8D50020C0D5002070B50C4EEF
:105A900004460D46C6F88C00A6F8881018F072FC73
:105AA000836A1B78052B0AD196F870303BB9FFF753
:105AB000A9FF29462046BDE870402FF0D3BB70BD3A
:105AC00020D6002013B50C4601902FF075FC084B32
:105AD0000198D3F88C1031B10022C3F88C20E36E0A
:105AE000022298470198636E02B0BDE81040184743
:105AF00020D6002070B50F4C054608460E462FF004
:105B0000DDFA0D4BA367A8680C4BE36718F078FC2F
:105B10000423C4F88000A86004F17800C4F884303D
:105B20002FF0AEFA002384F87030336E2846BDE8BB
:105B30007040184720D60020ED5B0200415B020058
:105B400070B50C4605462EF0F9FC254E306018F075
:105B500019FC18F017FC826A9DF8103082F8713039
:105B6000204B82F8704093F8701011B9012183F82E
:105B700070100024D3F88C10C3F88C40D36E2A46E2
:105B8000984718F00FFC30B115F0FB0F01D12FF042
:105B90000BFC18F00DFC032D134C0FD0042D11D06D
:105BA000A5B9236801332360258B2EF0C7FC336829
:105BB000C01A85420ED9208B208370BDA3680133A3
:105BC000A360F1E7636801336360EDE723690133A4
:105BD0002361E9E72EF0B2FC3368C01A80B2EBE72C
:105BE000C0D5002020D60020E8D500202DE9F043C4
:105BF00085B006462EF0A2FC2D4D2E4C286018F0E4
:105C0000C1FB18F0BFFBD0F828903146D9F86830B6
:105C100007469847284BD3F88C10984600293CD06B
:105C200066BBA68A2EF08AFC2B68C01A86421FD952
:105C3000A08AA08201238DF8043001A80023CDE9B9
:105C400002332FF033FAB8F88810D8F88C002FF010
:105C500081FBE3680133E360668B2EF06FFC2B68F9
:105C6000C01A864213D9608B608305B0BDE8F0830B
:105C70002EF064FC2B68C01A80B2DAE70022C3F869
:105C80008C203846D9F86C300222984708E02EF074
:105C900055FC2B68C01A80B2E6E70EB92FF084FBE2
:105CA00018F086FB002ED4D0236901332361D3E79B
:105CB000C0D50020E8D5002020D6002008B5064A2F
:105CC0000649042000F0AAFABDE8084004481C2256
:105CD00000213AF083BD00BFC55A0200F55A020008
:105CE000E8D5002013B50C4601902FF065FB084B5A
:105CF0000198D3F88C1031B10022C3F88C20236FA7
:105D0000022298470198A36E02B0BDE810401847E0
:105D100020D600202DE9F0410F4D876A0446084641
:105D20000E462FF0CBF90D4BAB67A0680C4BEB6721
:105D300018F066FB3B6EC5F88000A06005F17800A6
:105D4000C5F884302FF09CF9002385F87030736E0D
:105D50002046BDE8F041184720D60020195E020019
:105D6000655D02002DE9F04188461F4605462EF08C
:105D7000E5FB264E306018F005FB18F003FB244AC3
:105D8000846A9DF8183084F8793092F8703084F87D
:105D900078801BB9012382F8703067670023D2F83E
:105DA0008C10C2F88C30236F2A46984718F0FAFA04
:105DB00030B115F0FB0F01D12FF0F6FA18F0F8FA18
:105DC000032D144C10D0042D12D0ADB9236801332B
:105DD0002360258B2EF0B2FB3368C01A85420FD9A1
:105DE000208B2083BDE8F081A3680133A360F0E736
:105DF000636801336360ECE7236901332361E8E7FB
:105E00002EF09CFB3368C01A80B2EAE7C0D50020B0
:105E100020D60020E8D500202DE9F04385B080464B
:105E20002EF08CFB2E4D2F4E286018F0ABFA18F098
:105E3000A9FAD0F828902C4CD9F86C304146074686
:105E40009847B8F1000F29D1D6F88C300BB3A78A48
:105E50002EF074FB2B68C01A874214D9A08AA08246
:105E600001238DF8043001A80023CDE902332FF07F
:105E70001DF9B6F88810D6F88C002FF06BFAE3689D
:105E80000133E3601AE02EF059FB2B68C01A80B290
:105E9000E5E72FF089FA18F08BFAF0E7D6F88C10C6
:105EA00039B10023C6F88C300222D9F87030384658
:105EB000984718F07DFA236901332361668B2EF031
:105EC0003DFB2B68C01A864204D9608B608305B005
:105ED000BDE8F0832EF032FB2B68C01A80B2F5E7E4
:105EE000C0D5002020D60020E8D5002008B5064AFD
:105EF0000649052000F092F9BDE8084004481C223C
:105F000000213AF06BBC00BFE55C0200155D0200A9
:105F1000E8D500201FB5002301A8CDE90133039384
:105F20002FF0C4F805B05DF804FB000070B5104D0B
:105F3000104BAB670646104B8068EB670C4618F0B9
:105F40005FFA236EC5F88000B0602046C5F8843043
:105F50002FF0B4F805F178002FF092F8FFF7DAFF90
:105F6000B4F86C10A06EBDE870402FF07BB900BF94
:105F700020D60020156002007D5F020070B5044647
:105F800018F000FA18F0FEF9856A14F0FB0F6B6E3A
:105F9000214620D19847F8B12FF006FA1A4B1B681A
:105FA0009E782EF0CBFA304418F02AFA174E2B6E5A
:105FB000C6F880002846C6F884302FF07FF806F136
:105FC00078002FF05DF8FFF7A5FFB5F86C10A86E0C
:105FD0002FF048F902E0984718F0EAF9032C0C4B2F
:105FE00006D0042C08D05CB91A6801321A6070BD62
:105FF0009A6801329A60FAE75A6801325A60F6E705
:106000001A6901321A61F2E7741A002020D60020C2
:1060100004D60020F7B5054618F0B4F918F0B2F927
:106020001B4E846A074625BB2FF0BEF9236E294616
:106030003846984700B3174DB4F86A00D5F8803059
:10604000184418F0DDF9C5F8800020462FF036F826
:1060500005F178002FF014F8FFF75CFFB4F8683012
:10606000ADF800300121636E019368462FF054F8BB
:1060700005E0236E2946984718F09AF925B9F36888
:106080000133F36003B0F0BD336901333361F9E7E5
:1060900004D6002020D6002073B5114D114BAB67FC
:1060A0000646114B8068EB670C4618F0A9F9C5F855
:1060B0008000B06020462FF001F805F178002EF046
:1060C000DFFFFFF727FFB4F86830ADF8003001219B
:1060D000636E019368462FF01FF802B070BD00BFD9
:1060E00020D60020156002007D5F020008B52FF069
:1060F00063F9BDE8084018F05BB9000008B5084A2C
:106100000849002000F08AF8054A0749012000F0FC
:1061100085F8BDE8084005481C2200213AF05EBB26
:10612000ED600200996002002D5F020004D600209D
:10613000816A034B0A7853F8323003B1184770472D
:1061400020D60020816A044B0A7803EBC2035B6807
:1061500003B11847704700BF20D600202EF09CBE28
:106160002EF04CBF08B52EF049FFBDE808400020D6
:106170002EF0B8BF08B52EF0E1FE00202EF0A8FFEB
:10618000BDE8084001202EF0ADBF08B52EF0D6FEC8
:10619000BDE8084000202EF09BBF08B52EF0CEFED3
:1061A000BDE8084001202EF093BF000013B5124C4B
:1061B0002EF074FE114A1249124B0094012018F07F
:1061C00059F9114B0D4A0E490094022018F052F96A
:1061D0000E4B0A4A009300210D4B032018F04AF998
:1061E0000C49012018F054F90B489822002102B004
:1061F000BDE810403AF0F2BA616102004561020068
:10620000316102009B6102008B6102006561020046
:10621000756102005D61020020D60020034B43F847
:10622000301003EBC0004260704700BF20D6002052
:106230002DE9F04304468C461778D3E9000185B078
:1062400016461D46002C3CD0FFB14FEA112E4FF0F0
:1062500000090EF0C008B9F1000F08BFB8F1400FF7
:1062600013D1BCF1000F05D000F02CFD204605B085
:10627000BDE8F08300F096FC044608B10124F5E780
:10628000204AD38B0133D383F0E702460B463846CE
:1062900000F09CFD0238C0B20128EFD80DF10F03C9
:1062A00000933078D5E9002300F02EFC18B19DF85A
:1062B0000F30002BDAD1134A138B013313830224DE
:1062C000D4E73FB14FEA112C0CF0C002002C08BFFC
:1062D000402AD3D002460B46384600F077FD0238FC
:1062E0000128CBD80DF10F0300933078D5E90023B6
:1062F00000F00AFC0028DED09DF80F30002BBDD145
:10630000D9E700BF181900202DE9F041884616464C
:106310001F46044658B156EA07030E4D0AD100F055
:106320005FFE012806D1EB880133EB80044620464E
:10633000BDE8F08132463B46404600F0D1FD20B931
:10634000AB880133AB800224F1E7EB880133EB80AB
:10635000EDE700BF181900207FB50B46DDE90861A5
:1063600010B9002004B070BDE2B10A0A002502F0A5
:10637000C004002D08BF402C14D133B10CAB0AAAC5
:106380003046039100F0F2FC0399DDE90C2330461E
:10639000CDE900239DF8282000F04AFC003818BF02
:1063A0000120DFE7DDE90C239DF8280000F01FFD48
:1063B0000238C0B20128D4D8024A538B0133538328
:1063C0000220CFE7181900202DE9F04F2DED028BA8
:1063D00090F800B07D4D08EE102A0A880BF00F0BE4
:1063E00042FA0BF212F0010287B0814688461C4641
:1063F00005D12B8801332B804FF0000B0CE06A880D
:1064000043784FF4C07646FA0BF6013216F00106D7
:106410006A8007D04FF0010B584607B0BDEC028BE5
:10642000BDE8F08F03F03F03637484F810B010F8F8
:10643000027B26F017F9C7F38017E774A774C4E945
:106440000201C4E90001D8F8040018EE101A04F1A2
:10645000080304F11302C0F38010FFF7E9FE0128DE
:10646000824602D00228C7D0B246D8F80470E67C33
:1064700017F00401D4E9022335D0D8E904018B4296
:1064800008BF824203D1C7F3C007BE4226D0298984
:10649000013129810227B8F8020040FA0BF0314699
:1064A00000F00100FFF730FFB84224D2D8F80430E2
:1064B00059071DD5D4E90267D8E904018F4208BF06
:1064C000864204D1E27CC3F3C0039A420DD02B89EB
:1064D00001332B81BAF1010F1CD18DE7698901319C
:1064E00069810127D7E70F46D5E76B8901336B81B7
:1064F0004FF0010A0EE0B8F80200E17C40FA0BF020
:10650000D4E9022300F00100FFF7FEFE0128EFD9D5
:106510000228DFD084F814A0BBF1050F4FF0010A68
:1065200084F815A03FF676AF0AFA0BFB1BF02A0F92
:106530003FF470AF484610F808BB26F093F8D4E952
:1065400002230646D8F80400CDE904230F46E37C75
:1065500002934FEADB1BCDE9006718EE101A5A468A
:10656000C0F30010FFF7F8FE01283FF453AF0228F4
:106570003FF442AFD8F80410CA077FF54BAFD8E913
:106580000223BB4208BFB24203D1C1F340035B45C3
:1065900017D0AB890133AB81BBF1000F3FF42CAFB7
:1065A0003E0A002006F0C002002808BF402A7FF4FF
:1065B00023AF8B067FF520AF2B8C01332B846075C6
:1065C0002AE7EB890133EB8124E700BF181900208B
:1065D0002DE9F04F81461C46088899F81030694D26
:1065E000184110F0010089B08846924605D12B88E9
:1065F00001332B8009B0BDE8F08F6B8801336B80CD
:10660000D9E90023C4E90223C4E9002399F8123030
:10661000E374A374486804F1080304F113025146BB
:10662000C0F38010FFF704FE0128834603D0022840
:106630003AD04FF0000BD8F80460E77C16F0040164
:10664000D4E9022337D0D8E904018B4208BF824243
:1066500003D1C6F3C006B74228D029890131298168
:10666000022699F81010B8F80200084100F0010065
:106670003946FFF749FEB04225D2D8F804104E073C
:106680001ED5D4E90267D8E904239F4208BF964289
:1066900004D1E37CC1F3C0018B420ED02B890133BE
:1066A0002B81BBF1010F1ED10020A3E769890131C5
:1066B00069810126D5E70E46D3E76B8901336B81EB
:1066C0004FF0010B0FE099F81030B8F80200E17CB0
:1066D000184100F00100D4E90223FFF715FE01285C
:1066E000EED90228DDD084F814B04FF0010B84F805
:1066F00015B099F81130980701D401207AE7D8F83D
:1067000004300693D4E90201E37C0293D9E90267DD
:10671000069B99F813200792CDE90401CDE90067A3
:106720005146C3F30010FFF717FE01283FF462AF94
:106730000228079AB8D0D8F80430D907DDD5D8E9AF
:106740000201B94208BFB04203D1C3F340019142F4
:1067500013D0A9890131A981002AA5D03E0A0022BF
:1067600006F0C000002A08BF40289DD19B069BD59B
:106770002B8C01332B846275BFE7EB890133EB81EE
:10678000BBE700BF181900200B4B30B500240B4DA0
:106790001C708B072C701CBF21F00304231D084CB8
:1067A00008BF0B46236003EB0014631A934296BFA5
:1067B0002870002098B230BD3E1900203F190020FB
:1067C00040190020F0B51F460E4B9DF814C01978F3
:1067D0000D4B1B6816460022914201D80020F0BDE7
:1067E0001C7A844208D1D3E90045BD4208BFB442B7
:1067F00002D15C7A644502D001321033ECE701200B
:10680000EDE700BF3E19002040190020014B187829
:10681000704700BF3F190020014B00221A707047DB
:106820003E19002030B50B490B4D09782C78A14258
:106830000DD90A49096801EB0411C1E900230134AB
:106840009DF80C3008724B722C70012030BD002076
:10685000FCE700BF3F1900203E190020401900202E
:106860002DE9F04390461A4A1A4E17689DF81CC04D
:10687000994633783A460021CCB2A34201D8002091
:1068800020E0147A84421FD1D2E900454D4508BF6B
:10689000444519D1547A644516D1012B03F1FF34D4
:1068A0000ED0A1420CD003F18053013B07EB031340
:1068B000197A1172D3E90001C2E900015B7A5372BF
:1068C00034700120BDE8F08301311032D4E700BFFD
:1068D000401900203E190020F0B543EA00470C4B58
:1068E00093F800C00B4B16461A680023D9B28C45AA
:1068F00001D800200AE01046D0E90845BD4208BF93
:10690000B44203F1010302F14802EFD1F0BD00BF30
:10691000481900204C19002030B585B005460C46BA
:1069200010220021684639F059FF6A46ADF8004050
:106930002846240C11468DF802402EF099FF9DF850
:1069400002309DF801001B0443EA00239DF800007B
:10695000184305B030BD13B5042104460DEB01000A
:106960002EF0E0FF0199C1F3150141F480012046AA
:106970000191FFF7D1FF019940EA0160090A02B0D5
:1069800010BD00000C4B30B500240C4D1C708B0763
:106990002C701CBF21F00304231D094C08BF0B46BB
:1069A000236000EBC00403EBC404631A934296BF58
:1069B0002870002098B230BD4819002049190020E5
:1069C0004C190020014B1860704700BF441900208B
:1069D000014B1878704700BF49190020014B002275
:1069E0001A70704748190020F8B5074616461D462C
:1069F000FFF772FF044688B92E4B2F4A1978127898
:106A00008A4201D80020F8BD2C4A146801EBC1006D
:106A100014EBC00401F101011970F3D045EA0745F8
:106A2000069BC4E90865224603F1100153F8040BE4
:106A300042F8040B8B42F9D1012384F8403004F171
:106A40000F02631E13F8011F71B3002384F8403056
:106A5000079B04F11000024603F1100153F8045B98
:106A600042F8045B8B42F9D1012384F8413004F1F0
:106A70002002034613F8011BC9B1002384F84130FA
